:100000000C94F4000C9415010C9415010C9415013A
:100010000C9415010C9415010C9415010C94150108
:100020000C9415010C9415010C9415010C941501F8
:100030000C9415010C9415010C9415010C941501E8
:100040000C9415010C9415010C9415010C941501D8
:100050000C9415010C9415010C9415010C941501C8
:100060000C9415010C9415010C9415010C941501B8
:100070000C9415010C9415010C9415010C941501A8
:100080000C9415010C9415010C9415010C94150198
:100090000C9415010C9415010C9415010C94150188
:1000A0000C9415010C9415010C9415010C94150178
:1000B0000C9415010C9415010C9415010C94150168
:1000C0000C9415010C9415010C9415010C94150158
:1000D0000C9415010C9415010C9415010C94150148
:1000E0000C9415010C9415010C9415010C94150138
:1000F0000C9415010C9415010C9415010C94150128
:100100000C9415010C9415010C9415010C94150117
:100110000C9415010C9415010C9415010C94150107
:100120000C9415010C9415010C9415010C941501F7
:100130000C9415010C9415010C9415010C941501E7
:100140000C9415010C9415010C9415010C941501D7
:100150000C9415010C9415010C9415010C941501C7
:100160000C9415010C9415010C9415010C941501B7
:100170000C9415010C9415010C9415010C941501A7
:100180000C9415010C9415010C9415010C94150197
:100190000C9415010C9415010C9415010C94150187
:1001A0000C9415010C9415010C9415010C94150177
:1001B0000C9415010C9415010C9415010C94150167
:1001C0000C9415010C9415010C9415010C94150157
:1001D0000C9415010C9415010C9415010C94150147
:1001E0000C9415010C94150111241FBECFEFDFE311
:1001F000DEBFCDBF00E00CBF10E2A0E0B0E2E2E065
:10020000F3E000E00BBF02C007900D92A030B107F1
:10021000D9F710E2A0E0B0E201C01D92A030B10712
:10022000E1F70E9428010C947F010C940000E0E4A7
:10023000F0E01182E0E0F9E081E0808383E58183F2
:1002400080E49CE986A397A385E0809360060895E7
:10025000CF93DF9381E08093A006E0E4F0E0118289
:10026000E0E0F9E08093000983E5818380E49CE984
:1002700086A397A385E080936006C8E2DAE0A0E059
:10028000B9E091E06CE87AE044EC59E0C0A7D1A76E
:10029000C4A7D5A720E030E080910C0980FFFCCFF7
:1002A00094872F5F3F4F2A313105B1F798966D93B0
:1002B0007C9399979C966D937C939D9720E030E07A
:1002C00080910C0980FFFCCF94872F5F3F4F2A312C
:1002D0003105B1F798964D935C9399979C964D9301
:1002E0005C939D9720E030E080910C0980FFFCCF6B
:1002F00094872F5F3F4F2A313105B1F7C7CFF8946C
:02030000FFCF2D
:00000001FF
