:100000000C94F4000C9415010C9415010C9415013A
:100010000C9415010C9415010C9415010C94150108
:100020000C9415010C9415010C9415010C941501F8
:100030000C9415010C9415010C9415010C941501E8
:100040000C9415010C9415010C9415010C941501D8
:100050000C9415010C9415010C9415010C941501C8
:100060000C9415010C9480010C942C010C94150136
:100070000C9415010C9415010C9415010C941501A8
:100080000C9415010C9415010C9415010C94150198
:100090000C9415010C9415010C9415010C94150188
:1000A0000C9415010C9415010C9415010C94150178
:1000B0000C9415010C9415010C9415010C94150168
:1000C0000C9415010C9415010C9415010C94150158
:1000D0000C9415010C9415010C9415010C94150148
:1000E0000C9415010C9415010C94AA010C94560162
:1000F0000C9415010C9415010C9415010C94150128
:100100000C9415010C9415010C9415010C94150117
:100110000C9415010C9415010C9415010C94150107
:100120000C9415010C9415010C9415010C941501F7
:100130000C9415010C9415010C9415010C941501E7
:100140000C9415010C9415010C9415010C941501D7
:100150000C9415010C9415010C9415010C941501C7
:100160000C9415010C9415010C9415010C941501B7
:100170000C9415010C9415010C9415010C941501A7
:100180000C9415010C9415010C9415010C94150197
:100190000C9415010C9415010C9415010C94150187
:1001A0000C9415010C9415010C9415010C94150177
:1001B0000C9415010C9415010C9415010C94150167
:1001C0000C9415010C9415010C9415010C94150157
:1001D0000C9415010C9415010C9415010C94150147
:1001E0000C9415010C94150111241FBECFEFDFE311
:1001F000DEBFCDBF00E00CBF10E2A0E0B0E2E2E560
:10020000F1E100E00BBF02C007900D92A430B107EE
:10021000D9F710E2A4E0B0E201C01D92A234B10708
:10022000E1F70E94D4010C94A7080C9400000F93EE
:10023000DF93CF930F92CDB7DEB72FB72983F89412
:100240001BBEFC0108ED04BF608389818FBF0F9046
:10025000CF91DF910F9108951F920F920FB60F92D9
:100260000BB60F9211242F933F934F935F936F938D
:100270007F938F939F93AF93BF93EF93FF9380E20E
:1002800090E20E94B805FF91EF91BF91AF919F91CD
:100290008F917F916F915F914F913F912F910F902F
:1002A0000BBE0F900FBE0F901F9018951F920F92CC
:1002B0000FB60F920BB60F9211242F933F934F93CB
:1002C0005F936F937F938F939F93AF93BF93EF93BE
:1002D000FF9384E090E20E94B805FF91EF91BF91F7
:1002E000AF919F918F917F916F915F914F913F91CE
:1002F0002F910F900BBE0F900FBE0F901F9018956F
:100300001F920F920FB60F920BB60F9211242F93DC
:100310003F934F935F936F937F938F939F93AF938D
:10032000BF93EF93FF9380E290E20E949C05FF91C0
:10033000EF91BF91AF919F918F917F916F915F915D
:100340004F913F912F910F900BBE0F900FBE0F90CA
:100350001F9018951F920F920FB60F920BB60F9227
:1003600011242F933F934F935F936F937F938F93BA
:100370009F93AF93BF93EF93FF9384E090E20E942B
:100380009C05FF91EF91BF91AF919F918F917F91CC
:100390006F915F914F913F912F910F900BBE0F90F6
:1003A0000FBE0F901F9018951F93CF93DF938091EE
:1003B00080068860809380068091400688608093E4
:1003C00040068091A00683608093A0068091A200E1
:1003D0008760E0EAF0E082837894E0E0F8E081E092
:1003E0008093000813E0118380E49CE986A397A31F
:1003F00080E290E260EA78E041E050E00E94480547
:10040000E0912020F09121201583838180638383F4
:10041000A0EAB8E08CE016968C93169717961C927B
:1004200084818061848384818860848384E090E215
:1004300060EA7AE041E050E00E944805E091042043
:10044000F09105201583838180638383A0EABAE05D
:1004500083E116968C93169780EC17968C931797DA
:100460008091A40A846014968C9384818061848333
:10047000848188608483C0EAD6E011E080E290E263
:100480000E9484058823D1F380E290E20E948C05CB
:100490009091A40691279C83823781F784E090E2B3
:1004A00062ED0E9460058823C9F3E8CFDC01FB01FF
:1004B0006D937C93119748634183ED91FC91119763
:1004C0002583ED91FC9181E084830895FC010190E6
:1004D000F081E02D248130E023703070C90108954F
:1004E000FC01838D80E008950F93CF93DF93DC01AF
:1004F000722F2B3008F044C00B3008F041C05B96DF
:100500008C915B978823E1F581E05B968C935B97F8
:100510005C961C925C97660F12966C931297EA0198
:1005200020E030E007C08991FD01E20FF31F8383D3
:100530002F5F3F4F2717B8F357967C9357975896DE
:100540000C93589759961C9259975A961C925A9701
:1005500057968C915797882329F012968C91129771
:100560008E7F09C058968C915897882339F012963F
:100570008C9112978160ED91FC91868381E001C09E
:1005800080E0DF91CF910F9108950F93042F40E009
:1005900050E020E00E9474020F9108950F9300E054
:1005A0000E9474020F910895DC01ED91FC91119766
:1005B000948192FF02C084E001C083E05C968C933A
:1005C0005C97ED91FC911197986094835B961C92D7
:1005D0000895CF93DF93DC0157969C9157975896D7
:1005E0002C915897CD91DC9111978C8184FF04C098
:1005F00083E08B8385E021C059968C9159978917A8
:1006000078F459968C915997FD01E80FF11D83817B
:100610008F8359968C9159978F5F59968C9312C0FE
:100620005A968C915A97821728F412968C91816071
:100630008E8308C083E08B8381E05C968C935C970B
:100640005B961C92DF91CF910895DC015A968C91B4
:100650005A97ED91FC9111978A3080F497815A96C0
:100660008C915A97FD01E80FF11D95875A968C9150
:100670005A978F5F5A968C935A9709C083E0838369
:1006800082E05C968C935C975B961C925B97589685
:100690009C9158975A968C915A97ED91FC9111978D
:1006A000891718F482E08383089587E0838381E0CB
:1006B0005C968C935C975B961C920895DC01ED919F
:1006C000FC9111974481242F30E0C9018C70907007
:1006D000892B89F0948192FF02C084E001C083E0FD
:1006E0005C968C935C97ED91FC9111979860948344
:1006F0005B961C9205C046FF05C0CD010E94E90231
:1007000080E0089547FF05C0CD010E94250381E0E8
:10071000089586E05C968C935C975B961C9280E0D3
:100720000895FC01648F138E08954F925F926F922B
:100730007F928F929F92AF92BF92CF92DF92EF9271
:10074000FF920F931F93DF93CF93CDB7DEB73B019B
:10075000BA012901F601D5016401AC88BD889C016C
:10076000220F331F220F331F2455324FC701880F2A
:10077000991F8E0D9F1D880F991F820F931F2C5A52
:100780003D408083918386509E4024F086E09EE029
:100790008083918380819181875E9A4024F486EEE4
:1007A0009AE080839183C9018E59934F2AEF3FEFDE
:1007B000F901EE9E9001EF9E300DFE9E300D11244A
:1007C000820F931F8D939C93119786509E402CF01F
:1007D00086E09EE08D939C9311978D919C9111974B
:1007E000875E9A4024F486EE9AE08D939C93C30131
:1007F000805B954F861B970B800F911F841995097D
:10080000F601808391838C5A9D402CF08CEA9DE008
:10081000F60180839183F60180819181875F994001
:100820002CF486EF99E0F60180839183C201861B48
:10083000970B861997098C59954F801B910BF501E1
:10084000808391838C5A9D402CF08CEA9DE0F501C9
:1008500080839183F50180819181875F99402CF499
:1008600086EF99E0F50180839183CF91DF911F910D
:100870000F91FF90EF90DF90CF90BF90AF909F903F
:100880008F907F906F905F904F900895DF93CF93FC
:100890000F920F92CDB7DEB721E030E0C9010F9083
:1008A0000F90CF91DF910895FC0123813281418126
:1008B0005081B901CA0108951F93FC018381682FFB
:1008C000772767FD709510E040E050E013C0220FDD
:1008D000331F019748175907D4F3C901862397237B
:1008E000892B19F0220F331F122B4F5F5F4F4730B8
:1008F000510529F085E090E021E030E0EBCF8281E6
:1009000087FD116000D00F92EDB7FEB7319680E001
:1009100090E2ADB7BEB711968D939C931297128358
:1009200013820E94F5050F900F900F900F90812F6A
:100930001F9108951F93CF93DF93EC01162F0E9410
:100940005C04811B682F70E081E090E0062E02C0FD
:10095000880F991F0A94E2F7182F40E050E0A1E0B9
:10096000B0E0FB0131971AC0220F331F01974817DF
:100970005907D4F38A81992787FD90952823392335
:10098000232B51F0CF01841B950B9D0102C0220F38
:10099000331F8A95E2F7122B4F5F5F4F46175707B9
:1009A00029F021E030E086E090E0E1CF00D00F9226
:1009B000EDB7FEB7319680E090E2ADB7BEB71196C5
:1009C0008D939C931297128313820E94F5050F90CA
:1009D0000F900F900F90812FDF91CF911F9108956D
:1009E0001F93CF93DF93EC01162F0E945C04811BB1
:1009F000682F70E081E090E0062E02C0880F991FFA
:100A00000A94E2F7182F40E050E0A1E0B0E0FB01CB
:100A100031971AC0220F331F019748175907D4F393
:100A20008A81992787FD909528233923232B51F01C
:100A3000CF01841B950B9D0102C0220F331F8A95A5
:100A4000E2F7122B4F5F5F4F4617570729F021E05F
:100A500030E086E090E0E1CF8B8187FD119500D0FA
:100A60000F9280E090E2EDB7FEB781839283812FF1
:100A7000992787FD9095838394830E94F5050F90B5
:100A80000F900F900F90812FDF91CF911F910895BC
:100A9000FC016083718342835383118E108E138E09
:100AA000128E0895FC01628373830895FC01828D88
:100AB000938D20E08F5F8370891321E0822F08954A
:100AC000DC015A968C915A975B969C915B9720E03B
:100AD0008F5F83708917B1F021E05A968C915A97F5
:100AE000FD01E80FF11D648B8F5F83705A968C9324
:100AF0005A97ED91FC91119783818C7F12969C916E
:100B0000892B8383822F0895FC01908D818D20E0B5
:100B1000981321E0822F0895DC0159968C91599702
:100B2000FD01E80FF11D848159969C9159979F5FB3
:100B30009F7059969C930895DC0158969C91589704
:100B40009F5F9F7059968C915997ED91FC911197E9
:100B50002081981711F480E0089558968C91589749
:100B6000FD01E80FF11D248358969C9381E00895C0
:100B7000CF93DF93DC015B969C915B975A968C91A7
:100B80005A97CD91DC911197891721F48B818C7F35
:100B90008B830FC05B968C915B97FD01E80FF11D75
:100BA000848988835B968C915B978F5F83705B965B
:100BB0008C93DF91CF910895FC0170FF03C0848175
:100BC000816002C084818E7F848360830895FC01EC
:100BD000848180FF05C08081282F30E0316003C010
:100BE0008081282F30E0C9010895DF93CF93CDB7DE
:100BF000DEB7FE0136966191719180913E20909111
:100C00003F20AF010E940706CF91DF9108952F92F8
:100C10003F924F925F926F927F928F929F92AF928C
:100C2000BF92CF92DF92EF92FF920F931F93DF93C9
:100C3000CF93CDB7DEB72B97CDBFDEBF3C012B01E5
:100C40005A01FC0116821782838181FD03C06FEF78
:100C50007FEFC6C19AE0892E1E010894211C311C29
:100C6000F3012381F20123FD859123FF81912F015F
:100C7000882309F4B2C1853239F423FD859123FF1D
:100C800081912F01853229F490E0B3010E941D0863
:100C9000E7CF982FFF24EE249924FFE1FF15D0F031
:100CA0009B3269F09C3228F4903259F0933291F4DF
:100CB0000EC09D3249F0903369F441E024C052E007
:100CC000F52A84E0F82A28C098E0F92A25C0E0E156
:100CD000FE2A22C0F7FC29C0892F80538A3070F485
:100CE000F6FE05C0989C902C1124980E15C0E89C27
:100CF000E02C1124E80EF0E2FF2A0EC09E3229F407
:100D0000F6FC6BC140E4F42A07C09C3619F450E8A5
:100D1000F52A02C0983649F4F20123FD959123FF8C
:100D200091912F01992309F0B8CF892F85548330F1
:100D300018F08052833038F444E050E0A40EB51E21
:100D40005FE359830FC0933631F0933779F09335D1
:100D500009F056C020C0F5018081898342E050E04F
:100D6000A40EB51E610101E010E012C0F501C080C3
:100D7000D180F6FC03C06FEF7FEF02C0692D70E0F9
:100D800042E050E0A40EB51EC6010E9412088C017C
:100D90005FE7F52214C0F501C080D180F6FC03C0E6
:100DA0006FEF7FEF02C0692D70E042E050E0A40ECB
:100DB000B51EC6010E9407088C0150E8F52AF3FE13
:100DC00007C01AC080E290E0B3010E941D08EA94B7
:100DD0008E2D90E008171907A8F30EC0F601F7FC56
:100DE0008591F7FE81916F0190E0B3010E941D088B
:100DF000E110EA94015010400115110579F7EAC09D
:100E0000943611F0993669F5F7FE08C0F501208196
:100E100031814281538184E090E00AC0F5018081F4
:100E200091819C01442737FD4095542F82E090E04A
:100E3000A80EB91E9FE6F92257FF09C050954095AC
:100E4000309521953F4F4F4F5F4FE0E8FE2ACA0192
:100E5000B901A1012AE030E00E944908D82ED21839
:100E600040C0953729F41F2D1F7E2AE030E01DC0B9
:100E70001F2D197F9F3661F0903720F4983509F0C7
:100E8000ACC00FC0903739F0983709F0A6C004C045
:100E900028E030E00AC0106114FD146020E130E069
:100EA00004C014FD166020E132E017FF08C0F50110
:100EB000608171818281938144E050E008C0F50136
:100EC00080819181BC0180E090E042E050E0A40E7E
:100ED000B51EA1010E944908D82ED2188FE7F82E1E
:100EE000F122F6FE0BC05EEFF522D91438F4F4FEC1
:100EF00007C0F2FC05C08FEEF82202C01D2D01C014
:100F0000192DF4FE0DC0FE01ED0DF11D8081803321
:100F100019F499EEF92208C01F5FF2FE05C003C064
:100F20008F2D867809F01F5F0F2DF3FC14C0F0FEA3
:100F30000FC01E1510F09D2C0BC09D2C9E0C911AFD
:100F40001E2D06C080E290E0B3010E941D081F5FC5
:100F50001E15C0F304C01E1510F4E11A01C0EE24E2
:100F600004FF0FC080E390E0B3010E941D0802FF60
:100F70001DC001FD03C088E790E00EC088E590E049
:100F80000BC0802F867891F001FF02C08BE201C078
:100F900080E2F7FC8DE290E0B3010E941D0806C0DC
:100FA00080E390E0B3010E941D089A94D914C0F325
:100FB000DA94F101ED0DF11D808190E0B3010E9402
:100FC0001D08DD20A9F706C080E290E0B3010E9471
:100FD0001D08EA94EE20C1F743CEF30166817781C4
:100FE000CB012B96CDBFDEBFCF91DF911F910F912B
:100FF000FF90EF90DF90CF90BF90AF909F908F9039
:101000007F906F905F904F903F902F900895FC01DC
:101010000590615070400110D8F7809590958E0F23
:101020009F1F0895FC016150704001900110D8F796
:10103000809590958E0F9F1F08950F931F93CF93C8
:10104000DF938C01EB018B8181FF1BC082FF0DC000
:101050002E813F818C819D812817390764F4E881B6
:10106000F9810193E883F98306C0E885F985802F2B
:101070001995892B31F48E819F8101968E839F83F0
:1010800002C00FEF1FEFC801DF91CF911F910F91A9
:101090000895FA01AA27283051F1203181F1E8940E
:1010A0006F936E7F6E5F7F4F8F4F9F4FAF4FB1E05B
:1010B0003ED0B4E03CD0670F781F891F9A1FA11D56
:1010C000680F791F8A1F911DA11D6A0F711D811D57
:1010D000911DA11D20D009F468943F912AE0269F1C
:1010E00011243019305D3193DEF6CF010895462F7B
:1010F0004770405D4193B3E00FD0C9F7F6CF462F5C
:101100004F70405D4A3318F0495D31FD40524193C4
:1011100002D0A9F7EACFB4E0A69597958795779581
:101120006795BA95C9F700976105710508959B0108
:10113000AC010A2E06945795479537952795BA9591
:10114000C9F7620F731F841F951FA01D0895F8949F
:02115000FFCFCF
:0411520025690A0001
:00000001FF
