:100000000C94F4000C9415010C9415010C9415013A
:100010000C9415010C9415010C9415010C94150108
:100020000C9415010C9415010C9415010C941501F8
:100030000C9415010C9415010C9415010C941501E8
:100040000C9415010C9415010C9415010C941501D8
:100050000C9415010C9415010C9415010C941501C8
:100060000C9415010C9415010C9415010C941501B8
:100070000C9415010C9415010C9415010C941501A8
:100080000C9415010C9415010C9415010C94150198
:100090000C9415010C9415010C9415010C94150188
:1000A0000C9415010C9415010C9415010C94150178
:1000B0000C9415010C9415010C9415010C94150168
:1000C0000C9415010C9415010C9415010C94150158
:1000D0000C9415010C9415010C9415010C94150148
:1000E0000C9415010C9415010C9415010C94150138
:1000F0000C9415010C9415010C9415010C94150128
:100100000C9415010C9415010C9415010C94150117
:100110000C9415010C9415010C9415010C94150107
:100120000C9415010C9415010C9415010C941501F7
:100130000C9415010C9415010C9415010C941501E7
:100140000C9415010C9415010C9415010C941501D7
:100150000C9415010C9415010C9415010C941501C7
:100160000C9415010C9415010C9415010C941501B7
:100170000C9415010C9415010C9415010C941501A7
:100180000C9415010C9415010C9415010C94150197
:100190000C9415010C9415010C9415010C94150187
:1001A0000C9415010C9415010C9415010C94150177
:1001B0000C9415010C9415010C9415010C94150167
:1001C0000C9415010C9415010C9415010C94150157
:1001D0000C9415010C9415010C9415010C94150147
:1001E0000C9415010C94150111241FBECFEFDFE311
:1001F000DEBFCDBF00E00CBF10E2A0E0B0E2E6EF52
:10020000F2E000E00BBF02C007900D92A030B107F2
:10021000D9F710E2A0E0B0E201C01D92A030B10712
:10022000E1F70E9439010C9479010C940000E0E49C
:10023000F0E01182E0E0F9E087E0808383EA8183E7
:1002400081E792E086A397A38AE0809360060895F1
:1002500088ED84BF8091500082608093500080912F
:10026000510081FFFCCF88ED84BF81E08093400086
:10027000089588ED84BF8091500082608093500083
:100280008091510081FFFCCF88ED84BF81E0809395
:100290004000E0E4F0E01182E0E0F9E087E08093E4
:1002A000000983EA818381E792E086A397A38AE02D
:1002B000809360062FE130E091E02E5F3F4F22A750
:1002C00033A72250304026A737A740E050E0809166
:1002D0000C0980FFFCCF94874F5F5F4F433351057C
:1002E000B1F72F5F3F4F2133310539F780E090E0C0
:0602F0000895F894FFCF11
:00000001FF
