:100000000C94F4000C9415010C9415010C9415013A
:100010000C9415010C9415010C9415010C94150108
:100020000C9415010C9415010C9415010C941501F8
:100030000C9415010C9432010C9415010C941501CB
:100040000C9415010C9415010C9415010C941501D8
:100050000C9415010C9415010C9415010C941501C8
:100060000C9415010C9415010C9415010C941501B8
:100070000C9415010C9415010C9415010C941501A8
:100080000C9415010C9415010C9415010C94150198
:100090000C9415010C9415010C9415010C94150188
:1000A0000C9415010C9415010C9415010C94150178
:1000B0000C9415010C9415010C9415010C94150168
:1000C0000C9415010C9415010C9415010C94150158
:1000D0000C9415010C9415010C9415010C94150148
:1000E0000C9415010C9415010C948D010C94630172
:1000F0000C9415010C9415010C9415010C94150128
:100100000C9415010C9415010C9415010C94150117
:100110000C9415010C9415010C9415010C94150107
:100120000C9415010C9415010C9415010C941501F7
:100130000C9415010C9415010C9415010C941501E7
:100140000C9415010C9415010C9415010C941501D7
:100150000C9415010C9415010C9415010C941501C7
:100160000C9415010C9415010C9415010C941501B7
:100170000C9415010C9415010C9415010C941501A7
:100180000C9415010C9415010C9415010C94150197
:100190000C9415010C9415010C9415010C94150187
:1001A0000C9415010C9415010C9415010C94150177
:1001B0000C9415010C9415010C9415010C94150167
:1001C0000C9415010C9415010C9415010C94150157
:1001D0000C9415010C9415010C9415010C94150147
:1001E0000C9415010C94150111241FBECFEFDFE311
:1001F000DEBFCDBF00E00CBF10E2A0E0B0E2E8EB54
:10020000F3E100E00BBF02C007900D92A234B107EA
:10021000D9F710E2A2E4B0E201C01D92A337B10702
:10022000E1F70E94B7010C94DA090C9417011F92B0
:100230000F920FB60F920BB60F9211242F933F938C
:100240004F938F939F93EF93FF93E0EAF6E043E0A1
:1002500020E533EC8091A40684278483C9010197AB
:10026000F1F7F8CF1F920F920FB60F920BB60F92C5
:1002700011242F933F934F935F936F937F938F93AB
:100280009F93AF93BF93EF93FF9384E490E20E9418
:10029000C40580913520882319F481E080934220A1
:1002A000FF91EF91BF91AF919F918F917F916F914E
:1002B0005F914F913F912F910F900BBE0F900FBE0A
:1002C0000F901F9018951F920F920FB60F920BB6BA
:1002D0000F9211242F933F934F935F936F937F93CC
:1002E0008F939F93AF93BF93EF93FF9383E690E237
:1002F0000E94AB06FF91EF91BF91AF919F918F91BB
:100300007F916F915F914F913F912F910F900BBE15
:100310000F900FBE0F901F9018951F920F920FB65F
:100320000F920BB60F9211242F933F934F935F932D
:100330006F937F938F939F93AF93BF93EF93FF93AD
:1003400083E690E20E948F06FF91EF91BF91AF91FB
:100350009F918F917F916F915F914F913F912F91DD
:100360000F900BBE0F900FBE0F901F9018952F92FD
:100370003F924F925F926F927F928F929F92AF9235
:10038000BF92CF92DF92EF92FF920F931F93DF9372
:10039000CF93CDB7DEB7CE58D040CDBFDEBFDE01A4
:1003A0001D96EFE3F0E283E001900D928150E1F7BA
:1003B00080E3898385E18B8B84E08C8B89E18D8B55
:1003C00081E18E8B8EE38B8381E08C838AE18A834B
:1003D000DE015096ECE3F0E283E001900D92815053
:1003E000E1F7DE015796E6E3F0E286E001900D9238
:1003F0008150E1F71D821E821F82188619861A8697
:100400001B861C86A0E4B6E088E080934006149624
:100410008C9314978093800623E02093A0068FE0AE
:1004200080936006E0E0F9E081E08093000983EFCB
:10043000818380E49CE986A397A32093B0008091F8
:100440005006877C886150968C938091A2008760CB
:10045000E0EAF0E08283789484E490E260E874E07B
:1004600040EC50E025E00E94BC048091612088238C
:10047000E1F784E490E263E5AE01435F5F4F23E080
:1004800000E00E94DA04809161208823E1F784E48F
:1004900090E268E6AE014D5E5F4F24E000E00E940E
:1004A000DA04809161208823E1F784E490E268E631
:1004B000AE014D5F5F4F22E000E00E94DA048091C0
:1004C00061208823E1F783E690E260EA7AE041E088
:1004D00050E00E943B06E0916320F091642083E0AD
:1004E0008583838180638383A0EABAE08CE01696DB
:1004F0008C93169717961C928481806184838481E3
:10050000886084831092352010924220CE57DF4FAE
:100510001882C258D04036C000E010E083E690E276
:100520000E947706882341F083E690E20E947F06CE
:10053000833759F18E3631F00115110531F1013053
:10054000110561F723E02093A40680ED97E08093E6
:1005500028099093290980932C0990932D09A8EBE1
:10056000BBE0A0932A09B0932B09A0932E09B09366
:100570002F091F8A188E188A198E1A8E198A1B8EB7
:100580001C8E1A8A01E010E0C9CF1092A406809157
:1005900061208823E1F784E490E268E6AE014E5FD3
:1005A0005F4F21E00AE00E94DA0480914220882314
:1005B000E1F3109242208091A40681608093A4060A
:1005C00042E050E0DA01AB5BBF4D1E968C911E9766
:1005D00042505040BA01759567954E5F5F4FFA01E2
:1005E000EC5BFF4D87FF21C01E963C912685FB01E9
:1005F000EE0FFF1F81E090E08C0F9D1FE80FF91FA9
:1006000086899789820F911DCA57DF4F3883C65854
:10061000D040CB57DF4F1882C558D040CB57DF4F63
:10062000A881B981C558D04020C01E963C9126852E
:10063000FB01EE0FFF1F81E090E08C0F9D1FE80F84
:10064000F91F86899789820F911DC857DF4F38831C
:10065000C858D040C957DF4F1882C758D040C95733
:10066000DF4FA881B981C758D0408A0F9B1F868B66
:10067000978B4E5F5F4F4830510509F0A3CF8091B3
:1006800061208823E1F78091A40691E08927809377
:10069000A40684E490E263E5AE014F5F5F4F21E082
:1006A0000AE00E94DA04809142208823E1F310924C
:1006B0004220409155208889480F488B209157202F
:1006C0008989280F298B309159208A89380F3A8BD4
:1006D0008091A40682608093A406CE57DF4FB88134
:1006E000C258D040BF5FCE57DF4FB883C258D0400A
:1006F000B5300CF411CF8F89988D65E070E00E94C1
:10070000E806C757DF4F6883C958D040C657DF4F48
:100710007883CA58D040898D9A8D65E070E00E9438
:10072000E806C557DF4F6883CB58D040C457DF4F2A
:100730007883CC58D040822F27FD8F5F8595CF5787
:10074000DF4F8883C158D0408B8D9C8D65E070E071
:100750000E94E806C357DF4F6883CD58D040C25788
:10076000DF4F7883CE58D040842F47FD8F5F85952B
:100770008D5FCC57DF4F8883C458D040832F37FD1F
:100780008F5F85958150CD57DF4F8883C358D04008
:10079000CC57DF4FE881C458D0402E2E332427FC9D
:1007A0003094CF57DF4FF881C158D0404F2E552499
:1007B00047FC5094682E772467FC70940F920F9238
:1007C000E5E0F0E0EC0FFD1FADB7BEB71196ED937D
:1007D000FC931297C757DF4F8881C958D040C6573E
:1007E000DF4F9881CA58D040C557DF4F6881CB583A
:1007F000D040C457DF4F7881CC58D040C357DF4F2B
:100800004881CD58D040C257DF4F5881CE58D04094
:10081000910182017301ABE0CA2ED12CCC0EDD1EFA
:10082000F9E0AF2EB12CAC0EBD1EE7E08E2E912C60
:100830008C0E9D1E0E94F6050F900F90809120094E
:1008400090912109805A9F40C8F31D810E81812F0C
:10085000902F809328099093290969857A85CB0187
:1008600080932A0990932B094F815885CA01809360
:100870002C0990932D092B853C85C90180932E0965
:1008800090932F098DB79EB748978DBF9EBFEDB748
:10089000FEB731968DE190E08C0F9D1FADB7BEB7CE
:1008A00011968D939C931297A0E0B0E2A283B3833C
:1008B000248235824682578260867186C757DF4F11
:1008C000B881C958D040B287C657DF4F8881CA580F
:1008D000D0408387C557DF4F9881CB58D04094874D
:1008E000C457DF4FA881CC58D040A587C357DF4FEE
:1008F000B881CD58D040B687C257DF4F8881CE58D7
:10090000D0408787108B018B628B738B448B558B08
:10091000268B378B0E940F078E01035E1F4FADB7EA
:10092000BEB75896ADBFBEBF0AC083E690E2F801DD
:1009300060810E9453068823C1F30F5F1F4FD801C7
:100940008C91882391F71F8A188E198E1A8E1B8E10
:100950001C8ECC57DF4FB881C458D040B88BCF57CE
:10096000DF4FE881C158D040E98BCD57DF4FF88188
:10097000C358D040FA8BD0CDDC01FB016D937C9342
:10098000119748634183ED91FC9111972583ED9177
:10099000FC9181E084830895FC010190F081E02DB9
:1009A000248130E023703070C9010895FC018789EB
:1009B00080E008950F93CF93DF93DC01722F2930ED
:1009C00008F044C0093008F041C057968C91579701
:1009D0008823E1F581E057968C93579758961C929F
:1009E0005897660F12966C931297EA0120E030E058
:1009F00007C08991FD01E20FF31F83832F5F3F4FF3
:100A00002717B8F353967C93539754960C935497A7
:100A100055961C92559756961C92569753968C91C4
:100A20005397882329F012968C9112978E7F09C0D4
:100A300054968C915497882339F012968C91129782
:100A40008160ED91FC91868381E001C080E0DF91BF
:100A5000CF910F9108950F93042F40E050E020E0D4
:100A60000E94DA040F9108950F9300E00E94DA04C7
:100A70000F910895DC01ED91FC911197948192FF03
:100A800002C084E001C083E058968C935897ED91A2
:100A9000FC9111979860948357961C920895CF9378
:100AA000DF93DC0153969C91539754962C91549765
:100AB000CD91DC9111978C8184FF04C083E08B83FE
:100AC00085E021C055968C915597891778F45596F5
:100AD0008C915597FD01E80FF11D83818F83559609
:100AE0008C9155978F5F55968C9312C056968C912A
:100AF0005697821728F412968C9181608E8308C0D5
:100B000083E08B8381E058968C93589757961C927C
:100B1000DF91CF910895DC0156968C915697ED9117
:100B2000FC911197883080F4978156968C91569756
:100B3000FD01E80FF11D938756968C9156978F5FB4
:100B400056968C93569709C083E0838382E058962B
:100B50008C93589757961C92579754969C915497FC
:100B600056968C915697ED91FC911197891718F430
:100B700082E08383089587E0838381E058968C9395
:100B8000589757961C920895DC01ED91FC911197AE
:100B90004481242F30E0C9018C709070892B79F04A
:100BA000948192FF02C084E001C083E058968C9348
:100BB0005897ED91FC9111979860948310C046FF6F
:100BC00004C0CD010E944F05089547FF04C0CD0128
:100BD0000E948B05089586E058968C9358975796F7
:100BE0001C920895FC01608F178A08958F929F923E
:100BF000AF92BF92CF92DF92EF92FF920F931F932B
:100C0000DF93CF93CDB7DEB7D6016501880F991F6B
:100C1000F701E81BF90BE854F44FED93FC9388546B
:100C2000944F8E0D9F1DF60180839183CA01861B10
:100C3000970B8E54934F820F931F800F911FF401D7
:100C4000808391836E54734F640F751F621B730B07
:100C5000601B710BE889F98960837183CF91DF9103
:100C60001F910F91FF90EF90DF90CF90BF90AF90CA
:100C70009F908F900895FC0160837183428353831A
:100C800015861486178616860895FC016283738381
:100C90000895FC018685978520E08F5F8370891316
:100CA00021E0822F0895DC011E968C911E971F96DD
:100CB0009C911F9720E08F5F83708917B1F021E02E
:100CC0001E968C911E97FD01E80FF11D60878F5FC6
:100CD00083701E968C931E97ED91FC9111978381E2
:100CE0008C7F12969C91892B8383822F0895FC011F
:100CF0009485858520E0981321E0822F0895DC01FA
:100D00001D968C911D97FD01E80FF11D84811D96A4
:100D10009C911D979F5F93701D969C930895DC0195
:100D20001C969C911C979F5F93701D968C911D97AC
:100D3000ED91FC9111972081981711F480E00895AE
:100D40001C968C911C97FD01E80FF11D24831C96C5
:100D50009C9381E00895CF93DF93DC011F969C91D3
:100D60001F971E968C911E97CD91DC911197891734
:100D700021F48B818C7F8B830FC01F968C911F97E2
:100D8000FD01E80FF11D808588831F968C911F97C8
:100D90008F5F83701F968C93DF91CF910895FC0134
:100DA00070FF03C08481816002C084818E7F848350
:100DB00060830895FC01848180FF05C08081282F15
:100DC00030E0316003C08081282F30E0C9010895F0
:100DD00097FB092E07260AD077FD04D00CD006D049
:100DE00000201AF4709561957F4F0895F6F790955D
:100DF00081959F4F0895AA1BBB1B51E107C0AA1FF5
:100E0000BB1FA617B70710F0A61BB70B881F991FAB
:100E10005A95A9F780959095BC01CD0108950F933F
:100E20001F93DF93CF93CDB7DEB72E97CDBFDEBF35
:100E30000E891F8986E08C8309831A838FEF9FE7D1
:100E40008D839E839E01265E3F4FCE010196688D65
:100E5000798DA9010E943A072F813885020F131F4F
:100E6000F80110822E96CDBFDEBFCF91DF911F918A
:100E70000F9108952F923F924F925F926F927F92BF
:100E80008F929F92AF92BF92CF92DF92EF92FF929A
:100E90000F931F93DF93CF93CDB7DEB72B97CDBFC3
:100EA000DEBF3C012B015A01FC01168217828381AF
:100EB00081FD03C06FEF7FEFC6C19AE0892E1E014E
:100EC0000894211C311CF3012381F20123FD85913B
:100ED00023FF81912F01882309F4B2C1853239F4AF
:100EE00023FD859123FF81912F01853229F490E024
:100EF000B3010E945009E7CF982FFF24EE249924D4
:100F0000FFE1FF15D0F09B3269F09C3228F490325B
:100F100059F0933291F40EC09D3249F0903369F448
:100F200041E024C052E0F52A84E0F82A28C098E085
:100F3000F92A25C0E0E1FE2A22C0F7FC29C0892F4A
:100F400080538A3070F4F6FE05C0989C902C1124D2
:100F5000980E15C0E89CE02C1124E80EF0E2FF2A60
:100F60000EC09E3229F4F6FC6BC140E4F42A07C09F
:100F70009C3619F450E8F52A02C0983649F4F2017B
:100F800023FD959123FF91912F01992309F0B8CF6B
:100F9000892F8554833018F08052833038F444E030
:100FA00050E0A40EB51E5FE359830FC0933631F0B5
:100FB000933779F0933509F056C020C0F501808150
:100FC000898342E050E0A40EB51E610101E010E00B
:100FD00012C0F501C080D180F6FC03C06FEF7FEF37
:100FE00002C0692D70E042E050E0A40EB51EC601BB
:100FF0000E9445098C015FE7F52214C0F501C0800D
:10100000D180F6FC03C06FEF7FEF02C0692D70E066
:1010100042E050E0A40EB51EC6010E943A098C01C0
:1010200050E8F52AF3FE07C01AC080E290E0B30151
:101030000E945009EA948E2D90E008171907A8F332
:101040000EC0F601F7FC8591F7FE81916F0190E0EB
:10105000B3010E945009E110EA94015010400115BB
:10106000110579F7EAC0943611F0993669F5F7FE63
:1010700008C0F501208131814281538184E090E0F4
:101080000AC0F501808191819C01442737FD40957C
:10109000542F82E090E0A80EB91E9FE6F92257FF78
:1010A00009C050954095309521953F4F4F4F5F4F68
:1010B000E0E8FE2ACA01B901A1012AE030E00E945D
:1010C0007C09D82ED21840C0953729F41F2D1F7ED9
:1010D0002AE030E01DC01F2D197F9F3661F0903748
:1010E00020F4983509F0ACC00FC0903739F098372C
:1010F00009F0A6C004C028E030E00AC0106114FD69
:10110000146020E130E004C014FD166020E132E0FC
:1011100017FF08C0F501608171818281938144E0ED
:1011200050E008C0F50180819181BC0180E090E031
:1011300042E050E0A40EB51EA1010E947C09D82E09
:10114000D2188FE7F82EF122F6FE0BC05EEFF522E3
:10115000D91438F4F4FE07C0F2FC05C08FEEF82273
:1011600002C01D2D01C0192DF4FE0DC0FE01ED0DB4
:10117000F11D8081803319F499EEF92208C01F5FB8
:10118000F2FE05C003C08F2D867809F01F5F0F2D7A
:10119000F3FC14C0F0FE0FC01E1510F09D2C0BC008
:1011A0009D2C9E0C911A1E2D06C080E290E0B3018A
:1011B0000E9450091F5F1E15C0F304C01E1510F4D5
:1011C000E11A01C0EE2404FF0FC080E390E0B301F8
:1011D0000E94500902FF1DC001FD03C088E790E096
:1011E0000EC088E590E00BC0802F867891F001FF5B
:1011F00002C08BE201C080E2F7FC8DE290E0B30117
:101200000E94500906C080E390E0B3010E9450099B
:101210009A94D914C0F3DA94F101ED0DF11D808197
:1012200090E0B3010E945009DD20A9F706C080E2DA
:1012300090E0B3010E945009EA94EE20C1F743CE3A
:10124000F30166817781CB012B96CDBFDEBFCF91B5
:10125000DF911F910F91FF90EF90DF90CF90BF90A3
:10126000AF909F908F907F906F905F904F903F9046
:101270002F900895FC010590615070400110D8F73F
:10128000809590958E0F9F1F0895FC0161507040CE
:1012900001900110D8F7809590958E0F9F1F0895AB
:1012A0000F931F93CF93DF938C01EB018B8181FF11
:1012B0001BC082FF0DC02E813F818C819D8128172C
:1012C000390764F4E881F9810193E883F98306C062
:1012D000E885F985802F1995892B31F48E819F81BE
:1012E00001968E839F8302C00FEF1FEFC801DF912D
:1012F000CF911F910F910895FA01AA27283051F13B
:10130000203181F1E8946F936E7F6E5F7F4F8F4F36
:101310009F4FAF4FB1E03ED0B4E03CD0670F781F95
:10132000891F9A1FA11D680F791F8A1F911DA11D7A
:101330006A0F711D811D911DA11D20D009F46894B3
:101340003F912AE0269F11243019305D3193DEF65B
:10135000CF010895462F4770405D4193B3E00FD011
:10136000C9F7F6CF462F4F70405D4A3318F0495DFC
:1013700031FD4052419302D0A9F7EACFB4E0A695DF
:101380009795879577956795BA95C9F70097610501
:10139000710508959B01AC010A2E06945795479557
:1013A00037952795BA95C9F7620F731F841F951F4C
:0813B000A01D0895F894FFCF81
:1013B80020582534642059253464205A2534642063
:1013C800782534642079253464207A2534642052C1
:1013D8002534642072253464204C253464206C251F
:1013E80034640A0D00010000000000000000002C19
:0213F8000C08DF
:00000001FF
