:100000000C94F4000C9415010C9415010C9415013A
:100010000C9415010C9415010C9415010C94150108
:100020000C9415010C9415010C9415010C941501F8
:100030000C9415010C9417010C9415010C941501E6
:100040000C9415010C9415010C9415010C941501D8
:100050000C9415010C9415010C9415010C941501C8
:100060000C9415010C9415010C9415010C941501B8
:100070000C9415010C9415010C9415010C941501A8
:100080000C9415010C9415010C9415010C94150198
:100090000C9415010C9415010C9415010C94150188
:1000A0000C9415010C9415010C9415010C94150178
:1000B0000C9415010C9415010C9415010C94150168
:1000C0000C9415010C9415010C9415010C94150158
:1000D0000C9415010C9415010C9415010C94150148
:1000E0000C9415010C9415010C9415010C94150138
:1000F0000C9415010C9415010C9415010C94150128
:100100000C9415010C9415010C9415010C94150117
:100110000C9415010C9415010C9415010C94150107
:100120000C9415010C9415010C9415010C941501F7
:100130000C9415010C9415010C9415010C941501E7
:100140000C9415010C9415010C9415010C941501D7
:100150000C9415010C9415010C9415010C941501C7
:100160000C9415010C9415010C9415010C941501B7
:100170000C9415010C9415010C9415010C941501A7
:100180000C9415010C9415010C9415010C94150197
:100190000C9415010C9415010C9415010C94150187
:1001A0000C9415010C9415010C9415010C94150177
:1001B0000C9415010C9415010C9415010C94150167
:1001C0000C9415010C9415010C9415010C94150157
:1001D0000C9415010C9415010C9415010C94150147
:1001E0000C9415010C94150111241FBECFEFDFE311
:1001F000DEBFCDBF00E00CBF10E2A0E0B0E2EEE752
:10020000F6E000E00BBF02C007900D92A030B107EE
:10021000D9F710E2A0E0B0E201C01D92AD31B10704
:10022000E1F70E9441010C943D030C9400001F92E1
:100230000F920FB60F920BB60F9211242F933F938C
:100240004F935F936F937F938F939F93AF93BF93DE
:10025000EF93FF9384E090E20E94C802FF91EF9138
:10026000BF91AF919F918F917F916F915F914F91CE
:100270003F912F910F900BBE0F900FBE0F901F90CC
:1002800018958F929F92AF92BF92CF92DF92EF928A
:10029000FF920F93DF93CF9300D00F92CDB7DEB7CD
:1002A0008DE2898398E09A8382E38B8380E38C8359
:1002B0008FEF80930006809360068093200681E094
:1002C0008093A006E0E4F6E08CE0809340069483FF
:1002D00083E08093B00080915006877C8861808B9A
:1002E0008091A2008160E0EAF0E08283789484E06B
:1002F00090E260E874E040E450E025E00E94C00134
:1003000080911B208823E1F784E090E263E5AE0151
:100310004F5F5F4F22E000E00E94DE0180911B20D2
:100320008823E1F734E0832E912C8C0E9D1E20E56E
:10033000A22E23ECB22E90EAC92E96E0D92EE12C03
:1003400086E0F82E84E090E263E5A40121E008E075
:100350000E94DE01C5010197F1F78091A40691E0AA
:100360008927F601848380911B208823E1F78091FF
:100370000F2087FFE7CF80911120F7018483E2CF20
:10038000DC01FB016D937C93119748634183ED91F0
:10039000FC9111972583ED91FC9181E08483089570
:1003A000FC010190F081E02D248130E02370307059
:1003B000C9010895FC01878980E008950F93CF93C8
:1003C000DF93DC01722F293008F044C0093008F0B7
:1003D00041C057968C9157978823E1F581E0579655
:1003E0008C93579758961C925897660F12966C9359
:1003F0001297EA0120E030E007C08991FD01E20F89
:10040000F31F83832F5F3F4F2717B8F353967C93D7
:10041000539754960C93549755961C92559756960D
:100420001C92569753968C915397882329F01296D5
:100430008C9112978E7F09C054968C915497882383
:1004400039F012968C9112978160ED91FC91868320
:1004500081E001C080E0DF91CF910F9108950F936B
:10046000042F40E050E020E00E94DE010F9108954B
:100470000F9300E00E94DE010F910895DC01ED91E1
:10048000FC911197948192FF02C084E001C083E047
:1004900058968C935897ED91FC911197986094839E
:1004A00057961C920895CF93DF93DC0153969C914D
:1004B000539754962C915497CD91DC9111978C8140
:1004C00084FF04C083E08B8385E021C055968C9126
:1004D0005597891778F455968C915597FD01E80F3B
:1004E000F11D83818F8355968C9155978F5F55961B
:1004F0008C9312C056968C915697821728F41296B8
:100500008C9181608E8308C083E08B8381E0589654
:100510008C93589757961C92DF91CF910895DC01E8
:1005200056968C915697ED91FC911197883080F4F6
:10053000978156968C915697FD01E80FF11D938790
:1005400056968C9156978F5F56968C93569709C006
:1005500083E0838382E058968C93589757961C9239
:10056000579754969C91549756968C915697ED9127
:10057000FC911197891718F482E08383089587E02E
:10058000838381E058968C93589757961C920895D0
:10059000DC01ED91FC9111974481242F30E0C901D9
:1005A0008C709070892B79F0948192FF02C084E066
:1005B00001C083E058968C935897ED91FC91119768
:1005C0009860948310C046FF04C0CD010E9453027E
:1005D000089547FF04C0CD010E948F02089586E070
:1005E00058968C93589757961C920895FC01608FEB
:1005F000178A0895FC0181818F7981838281867EAB
:10060000862B842B82838081827F856080830895FE
:100610000F93FC0181818F79806481838281867E42
:10062000862B842B8283022B048380818D608083C0
:100630000F910895FC01452B19F4608F718F089577
:10064000628F738F0895FC018581672B19F421E077
:1006500030E002C022E030E040E090E0282339237F
:10066000232B09F041E0842F0895FC0181818C7FC8
:0E067000862B8183477043830895F894FFCF53
:00000001FF
