:100000000C9434000C9451000C9451000C94510049
:100010000C9451000C9451000C9451000C9451001C
:100020000C9451000C9451000C9451000C9451000C
:100030000C9451000C9451000C9451000C945100FC
:100040000C9451000C9451000C9451000C945100EC
:100050000C9451000C9451000C9451000C945100DC
:100060000C9451000C94510011241FBECFEFD8E026
:10007000DEBFCDBF11E0A0E0B1E0E6E5F2E002C0F6
:1000800005900D92A030B107D9F711E0A0E0B1E0E2
:1000900001C01D92A030B107E1F70E94D4000C947A
:1000A00029010C940000519A82E08093C00088E1FD
:1000B0008093C10086E08093C2008CE08093C400EE
:1000C0000895982F8091C00085FFFCCF9093C600C3
:1000D0000895FC0107C08091C00085FFFCCF90937C
:1000E000C600319690819923B1F708958091C000A0
:1000F00087FD02C080E008958091C600089580E4E5
:1001000080937C0080E880937A000895E82F60E077
:1001100070E040E050E080917C008E2B80937C006A
:1001200080917A00806480937A0080917A0084FFC5
:10013000FCCF9091780080917900382F20E0D90190
:10014000A90FB11D6A0F7B1F80917C00807F809377
:100150007C004F5F5F4F4F305105E9F6CB016FE0F8
:1001600070E00E940201CB0108958130910519F0E1
:10017000029799F408C0569A83E884BD83E085BD50
:100180008AE087BD08958AB180668AB983EC84BD10
:1001900082E085BD8AE087BD88BD0895982F86B529
:1001A0008823E9F797BD08951F93CF93DF930E94AB
:1001B00053000E947F001092B00084E08093B10051
:1001C000C0E0D0E08D2F992787FD9A95182F0E94C7
:1001D0007600823761F481E60E946100812F0E94DF
:1001E00061008C2F0E9461008AE70E946100B89B29
:1001F000EECF87B38E7787BB80E090E00E948600C9
:10020000EC01E0CF97FB092E07260AD077FD04D03A
:100210000CD006D000201AF4709561957F4F089598
:10022000F6F7909581959F4F0895AA1BBB1B51E14E
:1002300007C0AA1FBB1FA617B70710F0A61BB70B56
:10024000881F991F5A95A9F780959095BC01CD01FB
:060250000895F894FFCFB1
:00000001FF
