:100000000C9434000C943E000C943E000C943E0082
:100010000C943E000C943E000C943E000C943E0068
:100020000C943E000C943E000C943E000C943E0058
:100030000C943E000C943E000C943E000C943E0048
:100040000C943E000C943E000C943E000C943E0038
:100050000C943E000C943E000C943E000C943E0028
:100060000C943E000C943E0011241FBECFEFD8E04C
:10007000DEBFCDBF0E9472000C94EA000C94000019
:1000800090917C00982B90937C0080917A00806402
:1000900080937A0080917A0084FFFCCF40917800B1
:1000A0009091790080917C00807F80937C00392F33
:1000B00020E0240F311DC9010895982F8091C000C0
:1000C00085FFFCCF9093C6000895FC0107C0809186
:1000D000C00085FFFCCF9093C60031969081992394
:1000E000B1F70895DF92EF92FF920F93DF93CF93D2
:1000F000CDB7DEB766970FB6F894DEBF0FBECDBFA3
:1001000080E480937C0080E880937A0082E0809392
:10011000C00088E18093C10086E08093C2008CE03B
:100120008093C40082EB8AB980E38BB980E2D82E39
:100130007E010894E11CF11C8091C00087FFFCCF78
:100140000091C6000237C1F780E090E00E944000B5
:100150009E8B8D8B82E090E00E9440009C01098381
:10016000DA828D899E896AE070E00E94C3006B8309
:10017000C9016AE070E00E94C3006C831D82C70160
:100180000E946500D9CF97FB092E07260AD077FD7C
:1001900004D00CD006D000201AF4709561957F4FE2
:1001A0000895F6F7909581959F4F0895AA1BBB1B64
:1001B00051E107C0AA1FBB1FA617B70710F0A61B67
:1001C000B70B881F991F5A95A9F780959095BC0188
:0801D000CD010895F894FFCF62
:00000001FF
