:100000000C94F4000C9415010C9415010C9415013A
:100010000C9415010C9415010C9415010C94150108
:100020000C9415010C9415010C9415010C941501F8
:100030000C9415010C948F010C9415010C9415016E
:100040000C9415010C9415010C9415010C941501D8
:100050000C9415010C9415010C9415010C941501C8
:100060000C9415010C9415010C9415010C941501B8
:100070000C9415010C9415010C9415010C941501A8
:100080000C9415010C9415010C9415010C94150198
:100090000C9415010C9415010C9415010C94150188
:1000A0000C9415010C9415010C9415010C94150178
:1000B0000C9415010C9415010C9415010C94150168
:1000C0000C9415010C9415010C9415010C94150158
:1000D0000C9415010C9415010C9415010C94150148
:1000E0000C9415010C9415010C9415010C94150138
:1000F0000C9415010C9415010C9415010C94150128
:100100000C9415010C9415010C9415010C94150117
:100110000C9415010C9415010C9415010C94150107
:100120000C9415010C9415010C9415010C941501F7
:100130000C9415010C9415010C9415010C941701E5
:100140000C9435010C9453010C9471010C9415011D
:100150000C9415010C9415010C9415010C941501C7
:100160000C9415010C9415010C9415010C941501B7
:100170000C9415010C9415010C9415010C941501A7
:100180000C9415010C9415010C9415010C94150197
:100190000C9415010C9415010C9415010C94150187
:1001A0000C9415010C9415010C9415010C94150177
:1001B0000C9415010C9415010C9415010C94150167
:1001C0000C9415010C9415010C9415010C94150157
:1001D0000C9415010C9415010C9415010C94150147
:1001E0000C9415010C94150111241FBECFEFDFE311
:1001F000DEBFCDBF00E00CBF10E2A0E0B0E2EAE459
:10020000F9E000E00BBF02C007900D92A830B107E3
:10021000D9F710E2A8E0B0E201C01D92A332B10705
:10022000E1F70E94C5010C94A3040C9400001F92F6
:100230000F920FB60F920BB60F9211248F939F93CC
:10024000EF93FF938091002090910120E0E0F9E08E
:1002500080A791A7FF91EF919F918F910F900BBE77
:100260000F900FBE0F901F9018951F920F920FB610
:100270000F920BB60F9211248F939F93EF93FF93DE
:100280008091022090910320E0E0F9E082A793A7FB
:10029000FF91EF919F918F910F900BBE0F900FBE2A
:1002A0000F901F9018951F920F920FB60F920BB6DA
:1002B0000F9211248F939F93EF93FF9380910420CB
:1002C00090910520E0E0F9E084A795A7FF91EF91D8
:1002D0009F918F910F900BBE0F900FBE0F901F90AC
:1002E00018951F920F920FB60F920BB60F92112412
:1002F0008F939F93EF93FF93809106209091072017
:10030000E0E0F9E086A797A7FF91EF919F918F9189
:100310000F900BBE0F900FBE0F901F9018951F925D
:100320000F920FB60F920BB60F9211242F933F939B
:100330004F935F936F937F938F939F93AF93BF93ED
:10034000EF93FF93E0EAF6E0848191E089278483CC
:100350008AE090E20E94270481E090E080930820E8
:1003600090930920FF91EF91BF91AF919F918F9151
:100370007F916F915F914F913F912F910F900BBEA5
:100380000F900FBE0F901F9018952F923F924F9293
:100390005F926F927F928F929F92AF92BF92CF9215
:1003A000DF92EF92FF920F931F93DF93CF93CDB71E
:1003B000DEB72997CDBFDEBF8DE28A8388E08B83CD
:1003C00082E389838FEF8093600681E08093A006AB
:1003D0008091A2008760E0EAF0E082837894A0E058
:1003E000B9E021E02093000983EF11968C931197D7
:1003F00080E49CE996968D939C939797E0E4F8E0CF
:100400002093400883E181838DE790E086A397A342
:100410008FEF17968C9383E08093B000E0E4F6E0D2
:1004200080915006877C8861808B8CE080934006A9
:1004300088E084838AE090E260E874E040E450E081
:1004400025E00E941F03809121208823E1F78AE0A4
:1004500090E263E5AE014E5F5F4F22E000E00E9454
:100460003D0320E030E0A0E0B9E091E0E0EAF6E012
:1004700080910C0980FFFCCF1C969C931C97809167
:10048000A406892784832F5F3F4F2536310581F7E6
:10049000CC24DD2440E6442E46E0542E30E4232EC6
:1004A00038E0332E3E010894611C711C80914C0889
:1004B00080FD07C015C08091640690E48927F20191
:1004C0008483809121208823B1F781E0F101848722
:1004D0008AE090E263E5A30121E006E00E943D038B
:1004E0008091082090910920019701F7109208202F
:1004F000109209200894C11CD11C60E070E0DB015F
:10050000A55FBF4D1B968C911B977B01F594E794DB
:100510009B01265F3F4D87FF1EC080916406805877
:10052000F2018483F90183851B964C91F701EE0F4C
:10053000FF1FE60DF71D90E0909581959F4F887FF6
:1005400023813481281B390BB42EAA242A0D3B1D8C
:100550002383348314C0F90123851B963C91F70152
:10056000EE0FFF1FE60DF71D287F83819481820F18
:10057000911D932E8824880D991D838394836E5F2B
:100580007F4F6630710509F0BACFF0E4CF16F1E085
:10059000DF060CF48BCF8C819D8160E471E00E94BA
:1005A0007C04D62EC72E6C837D838E819F8160E470
:1005B00071E00E947C04F62EE72E6E837F8388858F
:1005C000998560E471E00E947C048B0168877987DB
:1005D0000A5011408D2D9C2D6F2D7E2DA8010E945B
:1005E000590480930020909301208D2D9C2D6F2D18
:1005F0007E2DA8010E94680480930420909305201A
:100600008D2D9C2D6F2D7E2DA8010E947604809348
:100610000220909303208D2D9C2D6F2D7E2DA801FF
:100620000E94790480930620909307201C821D82EB
:100630001E821F8218861986CC24DD2437CFDC0168
:10064000FB016D937C93119748634183ED91FC917D
:1006500011972583ED91FC9181E084830895FC013D
:100660000190F081E02D248130E023703070C901C9
:100670000895FC01878980E008950F93CF93DF935D
:10068000DC01722F293008F044C0093008F041C065
:1006900057968C9157978823E1F581E057968C9374
:1006A000579758961C925897660F12966C9312970C
:1006B000EA0120E030E007C08991FD01E20FF31F5D
:1006C00083832F5F3F4F2717B8F353967C9353973D
:1006D00054960C93549755961C92559756961C9287
:1006E000569753968C915397882329F012968C91A4
:1006F00012978E7F09C054968C915497882339F0B5
:1007000012968C9112978160ED91FC91868381E025
:1007100001C080E0DF91CF910F9108950F93042FD6
:1007200040E050E020E00E943D030F9108950F93B8
:1007300000E00E943D030F910895DC01ED91FC91D2
:100740001197948192FF02C084E001C083E0589623
:100750008C935897ED91FC911197986094835796DC
:100760001C920895CF93DF93DC0153969C9153978D
:1007700054962C915497CD91DC9111978C8184FFE4
:1007800004C083E08B8385E021C055968C915597FA
:10079000891778F455968C915597FD01E80FF11D56
:1007A00083818F8355968C9155978F5F55968C9347
:1007B00012C056968C915697821728F412968C91F7
:1007C00081608E8308C083E08B8381E058968C9390
:1007D000589757961C92DF91CF910895DC01569659
:1007E0008C915697ED91FC911197883080F4978108
:1007F00056968C915697FD01E80FF11D93875696FA
:100800008C9156978F5F56968C93569709C083E0CC
:10081000838382E058968C93589757961C925797EB
:1008200054969C91549756968C915697ED91FC91C5
:100830001197891718F482E08383089587E08383F2
:1008400081E058968C93589757961C920895DC0136
:10085000ED91FC9111974481242F30E0C9018C70F7
:100860009070892B79F0948192FF02C084E001C0DE
:1008700083E058968C935897ED91FC91119798606E
:10088000948310C046FF04C0CD010E94B2030895B6
:1008900047FF04C0CD010E94EE03089586E05896FC
:1008A0008C93589757961C920895FC01608F178A75
:1008B00008959C01AC0193E0440F551F9A95E1F710
:1008C000220F331F420F531F4455524FCA01089540
:1008D00026EF3FEFA901849F9001859F300D949FE3
:1008E000300D11242455324FC901089582EB9CE04C
:1008F000089582EB9CE0089597FB092E07260AD005
:1009000077FD04D00CD006D000201AF470956195C4
:100910007F4F0895F6F7909581959F4F0895AA1BF4
:10092000BB1B51E107C0AA1FBB1FA617B70710F0DA
:10093000A61BB70B881F991F5A95A9F7809590950C
:0A094000BC01CD010895F894FFCF2B
:08094A00AC0DD007AC0DD00785
:00000001FF
