:100000000C94F4000C9415010C9415010C9415013A
:100010000C9415010C9415010C9415010C94150108
:100020000C9415010C9415010C9415010C941501F8
:100030000C9415010C9417010C9415010C941501E6
:100040000C9415010C9415010C9415010C941501D8
:100050000C9415010C9415010C9415010C941501C8
:100060000C9415010C9415010C9415010C941501B8
:100070000C9415010C9415010C9415010C941501A8
:100080000C9415010C9415010C9415010C94150198
:100090000C9415010C9415010C9415010C94150188
:1000A0000C9415010C9415010C9415010C94150178
:1000B0000C9415010C9415010C9415010C94150168
:1000C0000C9415010C9415010C9415010C94150158
:1000D0000C9415010C9415010C9415010C94150148
:1000E0000C9415010C9415010C9495010C946B0162
:1000F0000C9415010C9415010C9415010C94150128
:100100000C9415010C9415010C9415010C94150117
:100110000C9415010C9415010C9415010C94150107
:100120000C9415010C9415010C9415010C941501F7
:100130000C9415010C9415010C9415010C941501E7
:100140000C9415010C9415010C9415010C941501D7
:100150000C9415010C9415010C9415010C941501C7
:100160000C94F7010C9441010C9415010C941501A9
:100170000C9415010C9415010C9415010C941501A7
:100180000C9415010C9415010C9415010C94150197
:100190000C9415010C9415010C9415010C94150187
:1001A0000C9415010C9415010C9415010C94150177
:1001B0000C9415010C9415010C9415010C94150167
:1001C0000C9415010C9415010C9415010C94150157
:1001D0000C9415010C9415010C9415010C94150147
:1001E0000C9415010C94150111241FBECFEFDFE311
:1001F000DEBFCDBF00E00CBF11E2A0E0B0E2EAEA52
:10020000FAE300E00BBF02C007900D92AE3EB107CB
:10021000D9F712E2AEEEB1E201C01D92A135B107ED
:10022000E1F70E9433020C94531D0C9400001F92BE
:100230000F920FB60F920BB60F9211242F933F938C
:100240004F935F936F937F938F939F93AF93BF93DE
:10025000EF93FF9381EF91E20E944C08FF91EF91A1
:10026000BF91AF919F918F917F916F915F914F91CE
:100270003F912F910F900BBE0F900FBE0F901F90CC
:1002800018951F920F920FB60F920BB60F92112472
:100290002F933F934F935F936F937F938F939F938E
:1002A000AF93BF93EF93FF938FE292E20E946B11A3
:1002B000FF91EF91BF91AF919F918F917F916F913E
:1002C0005F914F913F912F910F900BBE0F900FBEFA
:1002D0000F901F9018951F920F920FB60F920BB6AA
:1002E0000F9211242F933F934F935F936F937F93BC
:1002F0008F939F93AF93BF93EF93FF938FE092E21F
:100300000E946B11FF91EF91BF91AF919F918F91DF
:100310007F916F915F914F913F912F910F900BBE05
:100320000F900FBE0F901F9018951F920F920FB64F
:100330000F920BB60F9211242F933F934F935F931D
:100340006F937F938F939F93AF93BF93CF93DF93DD
:10035000EF93FF938FE092E20E944F118091F02182
:10036000C82FDD27C7FDD0958FE092E20E943F1194
:10037000C55DDD4D88838091F021882321F4809133
:100380002B22823789F08091F021813049F48091CD
:100390002C22803229F482E0E0EAF6E0848304C073
:1003A0008091F02182302CF08091F0218F5F80933A
:1003B000F0218091F021843029F41092F02181E025
:1003C0008093EF21FF91EF91DF91CF91BF91AF919A
:1003D0009F918F917F916F915F914F913F912F915D
:1003E0000F900BBE0F900FBE0F901F9018951F928D
:1003F0000F920FB60F920BB60F9211242F933F93CB
:100400004F935F936F937F938F939F93AF93BF931C
:10041000EF93FF938FE292E20E944F118FE292E2FC
:100420000E943F1180930E2280910E22813729F481
:1004300089E790E061E00E94830881E08093EE21EB
:10044000FF91EF91BF91AF919F918F917F916F91AC
:100450005F914F913F912F910F900BBE0F900FBE68
:100460000F901F9018952F923F924F925F926F922C
:100470007F928F929F92AF92BF92CF92DF92EF9234
:10048000FF920F931F93DF93CF93CDB7DEB7CA567A
:10049000D240CDBFDEBF1C821D821E821F82188605
:1004A00019861A861B8680E389838AE18A83DE01A6
:1004B0001C96E5ECF0E283E001900D928150E1F7AB
:1004C000DE015296EFEBF0E286E001900D92815052
:1004D000E1F7DE015896E9EBF0E286E001900D923B
:1004E0008150E1F7DE015E96E3EBF0E286E00190F9
:1004F0000D928150E1F71B82DE019496EDEAF0E265
:1005000086E001900D928150E1F7DE011F96EAEA44
:10051000F0E283E001900D928150E1F788E380934F
:1005200060068CE38093400688E0E0E4F6E0848394
:10053000809180068860809380068091A006836009
:100540008093A006A0E4B9E081E08093400993E3A2
:1005500011969C93119720E43CE996962D933C9339
:100560009797E0E4F8E080934008918326A337A3AF
:10057000E0E0F8E08093000883E0818326A337A3BE
:1005800080ED97E098968D939C9399979A968D938A
:100590009C939B978091A2008760E0EAF0E08283C1
:1005A00078948FE292E260EA79E00E944D0D8FE04C
:1005B00092E260EA7AE00E944D0D81EF91E260E8FC
:1005C00074E00E94770D8E0100541F4FC80160E057
:1005D00070E20E946F1A8FE292E2B8010E94E91065
:1005E00021E030E0C55ADD4F28833983CB55D24016
:1005F000C65ADD4F1882CA55D240C75ADD4F1882FD
:10060000C955D240C85ADD4F1882C855D240C95A80
:10061000DD4F1882C755D240CB5ADD4F1882198260
:10062000C555D240CD5ADD4F18821982C355D240EC
:100630002224332444245524CF5ADD4F18821982B2
:10064000C155D24031E0C05BDD4F3883C055D24048
:100650003801AE014C5D5F4FC759DD4F4883598368
:10066000C956D2401C86188E198E1D861A8E1B8E76
:100670001E861C8E1D8E8091EE21882309F4B6C043
:100680001092EE2180910E22823731F4C55ADD4F4F
:1006900018821982CB55D24080910E228F3609F4F0
:1006A000CFC080910E228337A1F58DB79EB70C97EE
:1006B0008DBF9EBFEDB7FEB73196ADB7BEB71196F1
:1006C0006C92119712967C9229E030E22283338358
:1006D000CB5ADD4F48815981C555D240448355835B
:1006E00046825782CD5ADD4F88819981C355D240C9
:1006F00080879187228633860E94881AADB7BEB75D
:100700001C96ADBFBEBF8FE292E2B3010E94E9101A
:100710007AC080910E22853771F4CB5ADD4FE88183
:10072000F981C555D2407996CB5ADD4FE883F983DC
:10073000C555D2405BC080910E22843679F4CB5AE5
:10074000DD4F28813981C555D24029513040CB5ADF
:10075000DD4F28833983C555D24048C080910E2291
:10076000833679F4CD5ADD4F48815981C355D24043
:10077000465F5F4FCD5ADD4F48835983C355D24002
:1007800035C080910E22883771F4CD5ADD4F8881B3
:100790009981C355D2400A97CD5ADD4F88839983FA
:1007A000C355D24023C080910E22813629F4A5E0A2
:1007B000B0E04A0E5B1E1AC080910E22853629F4E5
:1007C000EBEFFFEF4E0E5F1E11C080910E228437BB
:1007D00029F425E030E0220E331E08C080910E225D
:1007E000823621F44BEF5FEF240E351EC55ADD4FE4
:1007F00088819981CB55D2408130910521F00197B4
:1008000008F477C02FCF20ED37E0209368093093AC
:100810006909E0E4F8E08FEE9BE080A791A72093C0
:100820006A0930936B098FEF9AE082A793A7A1E042
:10083000B0E0C55ADD4FA883B983CB55D24012CF63
:10084000EDB7FEB73A97EDBFFEBF319628E130E035
:100850002C0F3D1FADB7BEB711962D933C93129749
:100860004CE050E04C0F5D1F42835383CE01039652
:100870008483958382E090E08C0F9D1F868397830D
:10088000CE0101968087918781EF91E2BE016C5D78
:100890007F4FAE01415F5F4F9E01265D3F4F8E014E
:1008A000045A1F4FBEE8EB2EF12CEC0EFD1EA4E205
:1008B000CA2EA1E0DA2ECC0EDD1EF8E8AF2EF1E054
:1008C000BF2EAC0EBD1EECEE8E2EE1E09E2E8C0EE9
:1008D0009D1E0E94B40EA1E0B0E0C55ADD4FA88372
:1008E000B983CB55D240EDB7FEB73A96EDBFFEBF08
:1008F000B9CE80910C0880FFFCCF81E080930C087A
:10090000CE010C9661EF71E2AE014E5F5F4F0E9427
:100910007D0EC05BDD4FF881C055D240F13079F4D7
:10092000CE01489661EF71E2AE014F5F5F4F0E94CA
:10093000020EC05BDD4F1882C055D2401EC08CA194
:100940009DA12E8D3F8D820F931F888F998F8EA131
:100950009FA128A139A1820F931F8A8F9B8F88A501
:1009600099A52AA13BA1820F931F8C8F9D8F21E017
:10097000C05BDD4F2883C055D240CF5ADD4F488140
:100980005981C155D240453051054CF44F5F5F4FFE
:10099000CF5ADD4F48835983C155D2400FC082E002
:1009A000E0EAF6E084838FE092E262E70E94CB10F7
:1009B000CF5ADD4F18821982C155D240888D998D4A
:1009C0002CA13DA1821B930B888F998F8C859F85CD
:1009D000891B8C878A8D9B8D2EA13FA1821B930B37
:1009E0008A8F9B8F8D859889891B8D878C8D9D8D96
:1009F00028A539A5821B930B8C8F9D8F8E85998995
:100A0000891B8E87FE017E9668E1C62ED12CCC0E06
:100A1000DD1E8E010E5E1F4F5CE0E52EF12CEC0E0C
:100A2000FD1E20813181C90143E0880F991F4A953D
:100A3000E1F7820F931FD6012D913D916D01820F39
:100A4000931F6AE070E00E94D01961937193D701FF
:100A50008D917D01992787FD9095D8014D915C91ED
:100A60009A01B3E0220F331FBA95E1F7240F351F27
:100A7000820F931F6AE070E00E94D019D8016D9335
:100A80007D938D01C759DD4F28813981C956D240E8
:100A9000E217F30731F64E8D5F8DC959DD4F48835C
:100AA0005983C756D24088A199A1CB59DD4F88837D
:100AB0009983C556D240AAA1BBA1CD59DD4FA883C9
:100AC000B983C356D240EA89FB89CF59DD4FE88309
:100AD000F983C156D2402C893D89C15ADD4F288304
:100AE0003983CF55D2404E895F89C35ADD4F488341
:100AF0005983CD55D2400F920F92E4E0F0E0EC0F15
:100B0000FD1FADB7BEB71196ED93FC931297C9596F
:100B1000DD4F88819981C756D240CB59DD4F68811E
:100B20007981C556D240CD59DD4F48815981C35690
:100B3000D240CF59DD4F28813981C156D240C15AA8
:100B4000DD4F08811981CF55D240C35ADD4FE8806F
:100B5000F980CD55D240AAE0CA2ED12CCC0EDD1E94
:100B6000F8E0AF2EB12CAC0EBD1EE6E08E2E912C1F
:100B70008C0E9D1E0E9498080F900F90CF5ADD4F4B
:100B800028813981C155D240232B09F0DCC08091E6
:100B9000EF211092EF21C3016EE270E20E946F1A02
:100BA0008FE292E2B3010E94E91080912D228C31F4
:100BB000C4F0C95ADD4F3881C755D240332389F478
:100BC000C30163E370E20E946F1A8FE292E2B30105
:100BD0000E94E91041E0C95ADD4F4883C755D24011
:100BE0001BC080912D228931BCF4C85ADD4F588139
:100BF000C855D240552381F4C3016FE370E20E94CF
:100C00006F1A8FE292E2B3010E94E91081E0C85AA4
:100C1000DD4F8883C855D24080912E228433C4F0A2
:100C2000C65ADD4F9881CA55D240992389F4C30131
:100C300069E470E20E946F1A8FE292E2B3010E94AF
:100C4000E910A1E0C65ADD4FA883CA55D2401BC0A7
:100C500080912E228D32BCF4C75ADD4FB881C95520
:100C6000D240BB2381F4C30163E570E20E946F1A96
:100C70008FE292E2B3010E94E910E1E0C75ADD4F32
:100C8000E883C955D240C3016EE570E20E946F1A35
:100C9000C95ADD4FF881C755D240FF2379F08091C2
:100CA0002D228B315CF48FE292E2B3010E94E910B5
:100CB000C95ADD4F1882C755D24015C0C85ADD4FFA
:100CC0002881C855D240222371F080912D228A318B
:100CD00054F08FE292E2B3010E94E910C85ADD4F4E
:100CE0001882C855D240C3016BE670E20E946F1AA9
:100CF000C65ADD4F3881CA55D240332379F08091EE
:100D00002E2283335CF48FE292E2B3010E94E91059
:100D1000C65ADD4F1882CA55D24015C0C75ADD4F9A
:100D20004881C955D240442371F080912E228E32E1
:100D300054F08FE292E2B3010E94E910C75ADD4FEE
:100D40001882C955D2408091600990916109805AFA
:100D50009F40C8F38E819F81CB5ADD4FA881B98116
:100D6000C555D2408A0F9B1F841995098093680945
:100D700090936909CD01840D951D2C813D81820FD1
:100D8000931F80936A0990936B09E0E4F8E08091E7
:100D9000600890916108805A9F40B8F38A859B85CE
:100DA000CD5ADD4F28813981C355D240820F931F20
:100DB0008219930980A791A7C901820D931D2885E7
:100DC0003985820F931F82A793A780912D222091AE
:100DD0002E224DB75EB7445150404DBF5EBFEDB7B8
:100DE000FEB73196ADB7BEB711966C9211971296B9
:100DF0007C9247E750E242835383CF59DD4FA8816D
:100E0000B981C156D240A483B583C15ADD4F488110
:100E10005981CF55D24046835783C35ADD4FA881AD
:100E2000B981CD55D240A087B187C959DD4F4881DE
:100E30005981C756D24042875387CB59DD4FA8818D
:100E4000B981C556D240A487B587CD59DD4F4881B9
:100E50005981C356D24046875787992787FD909579
:100E6000808B918B332727FD3095228B338B0E940B
:100E7000881A8DB79EB744968DBF9EBF8FE292E2CF
:100E8000B3010E94E910EECBDC01FB016D937C9372
:100E9000119748634183ED91FC9111972583ED9162
:100EA000FC9181E084830895FC010190F081E02DA4
:100EB000248130E023703070C9010895FC01838DD6
:100EC00080E008950F93CF93DF93DC01722F2B30D6
:100ED00008F044C00B3008F041C05B968C915B97E2
:100EE0008823E1F581E05B968C935B975C961C927E
:100EF0005C97660F12966C931297EA0120E030E03F
:100F000007C08991FD01E20FF31F83832F5F3F4FDD
:100F10002717B8F357967C93579758960C93589782
:100F200059961C9259975A961C925A9757968C919B
:100F30005797882329F012968C9112978E7F09C0BB
:100F400058968C915897882339F012968C91129765
:100F50008160ED91FC91868381E001C080E0DF91AA
:100F6000CF910F9108950F93042F40E050E020E0BF
:100F70000E9462070F9108950F9300E00E9462079C
:100F80000F910895DC01ED91FC911197948192FFEE
:100F900002C084E001C083E05C968C935C97ED9185
:100FA000FC911197986094835B961C920895CF935F
:100FB000DF93DC0157969C91579758962C91589740
:100FC000CD91DC9111978C8184FF04C083E08B83E9
:100FD00085E021C059968C915997891778F45996D4
:100FE0008C915997FD01E80FF11D83818F835996EC
:100FF0008C9159978F5F59968C9312C05A968C9109
:101000005A97821728F412968C9181608E8308C0BB
:1010100083E08B8381E05C968C935C975B961C925B
:10102000DF91CF910895DC015A968C915A97ED91FA
:10103000FC9111978A3080F497815A968C915A9737
:10104000FD01E80FF11D95875A968C915A978F5F95
:101050005A968C935A9709C083E0838382E05C960A
:101060008C935C975B961C925B9758969C915897D3
:101070005A968C915A97ED91FC911197891718F413
:1010800082E08383089587E0838381E05C968C937C
:101090005C975B961C920895DC01ED91FC91119791
:1010A0004481242F30E0C9018C709070892B89F025
:1010B000948192FF02C084E001C083E05C968C932F
:1010C0005C97ED91FC911197986094835B961C92CC
:1010D00005C046FF05C0CD010E94D70780E00895F6
:1010E00047FF05C0CD010E94130881E0089586E006
:1010F0005C968C935C975B961C9280E00895FC0153
:10110000648F138E08950F93DF93CF930F92CDB713
:10111000DEB72FB72983F8941BBEFC0108ED04BF8E
:10112000608389818FBF0F90CF91DF910F910895D8
:101130008F929F92AF92BF92CF92DF92DF93CF9325
:10114000CDB7DEB7F601D5018FEE9BE080839183AA
:101150008FEF9AE08D939C9388E49DE0F401808367
:101160009183EC85FD8580839183CF91DF91DF9022
:10117000CF90BF90AF909F908F9008952F923F9205
:101180004F925F926F927F928F929F92AF92BF9297
:10119000CF92DF92EF92FF920F931F93DF93CF9343
:1011A000CDB7DEB7C257D040CDBFDEBF2C011B018B
:1011B0003A0125962EAF3FAF259727960EAF1FAF6A
:1011C00027972996EEAEFFAE29972B96CEAEDFAECF
:1011D0002B97AA96AFAEAA97AB96BFAEAB97DE01A0
:1011E0001196E7EEF0E286E001900D928150E1F772
:1011F000DE015F96EFECF0E288E101900D92815004
:10120000E1F7F201A081B181AB8BBC8BF1010081D0
:1012100011810D8B1E8BF301608171816F8B788F33
:101220002596EEADFFAD25974081552747FD50959A
:10123000498F5A8F2796EEADFFAD27972081332730
:1012400027FD30952B8F3C8F2996EEADFFAD29976A
:101250008081992787FD90958D8F9E8FAF83B8876A
:1012600009871A876B877C874D875E872F87388B26
:10127000898B9A8B8D819E8123968EAF9FAF23970A
:10128000EB81FC812196EEAFFFAF219789819A8196
:101290008DAF9EAF9FA5A2969FAFA297E8A9A396F8
:1012A000EFAFA397F9A9A496FFAFA4972AA9A59693
:1012B0002FAFA5974BA9A6964FAFA6978CA9A79637
:1012C0008FAFA7979DA9A8969FAFA897EEA9A996BB
:1012D000EFAFA997FFA16A96FFAF6A9728A56B9613
:1012E0002FAF6B9749A56C964FAF6C978AA56D96FB
:1012F0008FAF6D979BA56E969FAF6E97ECA56F967F
:10130000EFAF6F97FDA5A096FFAFA0972EA5A19672
:101310002FAFA1974F8D62964FAF629788A16396CA
:101320008FAF639799A164969FAF6497EAA1659682
:10133000EFAF6597FBA16696FFAF66972CA1679606
:101340002FAF67974DA168964FAF68978EA16996AA
:101350008FAF69974BAE5CAE69AE7AAE2FAA38AE4E
:10136000A1E0B0E0EBADFCAD228133818F819885A7
:10137000281739071CF42F83388707C08B899C896D
:101380008217930714F42B8B3C8BEFA9F8AD628185
:10139000738189859A85681779071CF469877A872C
:1013A00007C08D899E898617970714F46D8B7E8BF5
:1013B000E9ADFAAD028113818B859C850817190769
:1013C0001CF40B871C8707C08F89988D80179107A5
:1013D00014F40F8B188F2596EEADFFAD2597EA0F0D
:1013E000FB1F8081682E772467FC70948D859E8515
:1013F000681679061CF46D867E8607C0898D9A8DE5
:101400008615970514F4698E7A8E2796EEADFFAD9A
:101410002797EA0FFB1F8081C82EDD24C7FCD094DC
:101420008F859889C816D9061CF4CF86D88A07C03C
:101430008B8D9C8D8C159D0514F4CB8EDC8E29969E
:10144000EEADFFAD2997EA0FFB1F8081E82EFF2448
:10145000E7FCF09489899A89E816F9061CF4E98A70
:10146000FA8A07C08D8D9E8D8E159F0514F4ED8E22
:10147000FE8EC901990F880B982F432F982F582F54
:10148000E82FF82F982E882E62968FAD6297820FE4
:10149000AC968FAFAC9731E062962FAD6297821712
:1014A00008F030E063962FAD6397240F41E0639618
:1014B0008FAD6397281708F040E0320F2C963FAFAE
:1014C0002C9731E02C968FAD2C97821708F030E0E6
:1014D000432B64968FAD6497890F31E064969FAD7E
:1014E0006497891708F030E0480F2D964FAF2D977D
:1014F00021E0481708F020E0322B65968FAD659704
:10150000850F41E065962FAD6597821708F040E0A2
:10151000380F2E963FAF2E9721E0381708F020E0C5
:10152000422B66968FAD66978E0F31E066969FAD23
:101530006697891708F030E0480F2F964FAF2F9726
:1015400021E0481708F020E0322B67968FAD6797AF
:101550008F0F41E06796EFAD67978E1708F040E078
:10156000380F60963FAF609721E0381708F020E011
:10157000422B68968FAD6897890D31E06896FFAD74
:1015800068978F1708F030E0480F61964FAF61976A
:1015900021E0481708F020E0A32EA22A69962FAD7B
:1015A0006997280DA20EAC964FADAC9762964FAFDF
:1015B00062972C968FAD2C9763968FAF63972D967D
:1015C0009FAD2D9764969FAF64972E96EFAD2E97A3
:1015D0006596EFAF65972F96FFAD2F976696FFAF95
:1015E000669760962FAD609767962FAF6797619665
:1015F0004FAD619768964FAF68976996AFAE6997A0
:10160000CB01990F880B982F272F982F582FE82F51
:10161000F82F882EAD968FAFAD976A968FAD6A97EB
:10162000860FAE968FAFAE9731E06A964FAD6A9750
:10163000841708F030E06B968FAD6B97280F41E070
:10164000281708F040E0932E920E31E0921608F031
:1016500030E0432B6C968FAD6C97890F31E06C9620
:101660009FAD6C97891708F030E0B42EB80E21E0DA
:10167000B81608F020E0322B6D968FAD6D97850F70
:1016800041E06D962FAD6D97821708F040E0232E54
:10169000280E21E0281608F020E0422B6E968FAD30
:1016A0006E978E0F31E06E969FAD6E97891708F09A
:1016B00030E0342E380E21E0381608F020E0322BCE
:1016C0006F968FAD6F978F0F41E06F96EFAD6F976D
:1016D0008E1708F040E0432E480E21E0481608F02F
:1016E00020E0422BA0968FADA097880D31E0A09608
:1016F000FFADA0978F1708F030E0542E580E21E070
:10170000581608F020E0832E822AA1962FADA197CB
:10171000AD964FADAD97240F820EAE968FADAE97BE
:101720006A968FAF6A976B969FAE6B976C96BFAEBB
:101730006C976D962FAE6D976E963FAE6E976F96C7
:101740004FAE6F97A0965FAEA097A1968FAEA19770
:10175000C801990F880B982F212F982F582F682F89
:10176000AF968FAFAF97E0968FAFE097E1968FAFD0
:10177000E197A2961FADA297100F31E0A296EFADB0
:10178000A2971E1708F030E0A396FFADA3972F0F86
:1017900041E02F1708F040E0F32FF20F31E0F2178D
:1017A00008F030E0432BA4968FADA497890F31E069
:1017B000A4962FADA497821708F030E0E42FE80F2D
:1017C00021E0E81708F020E0322BA5968FADA59711
:1017D000850F41E0A5969FADA597891708F040E0D9
:1017E000732F780F21E0781708F020E0422BA6969F
:1017F0008FADA697860F31E0A6962FADA6978217DC
:1018000008F030E0642F680F21E0681708F020E04E
:10181000322BA7968FADA797AF964FADAF97840F9A
:1018200041E0A7969FADA797891708F040E0532F96
:10183000580F21E0581708F020E0422BA8968FADF2
:10184000A897E0962FADE097820F31E0A8969FAD64
:10185000A897891708F030E0480F21E0481708F0F2
:1018600020E0322BA9962FADA997E1968FADE19795
:10187000280FA2961FAFA297A396FFAFA397A49697
:10188000EFAFA497A5967FAFA597A6966FAFA69743
:10189000A7965FAFA797A8964FAFA897230FA996D3
:1018A0002FAFA9978DAD9EAD860D971D8DAF9EAFC5
:1018B00021968EAD9FAD21978C0D9D1D21968EAFEB
:1018C0009FAF219723968EAD9FAD23978E0D9F1DC1
:1018D00023968EAF9FAF239711968BAD9CAD02964A
:1018E0008BAF9CAF89AD9AAD029689AF9AAF8FA9A5
:1018F00098AD02968FAB98AFA233B10509F032CD07
:1019000023968EAD9FAD23978D839E8321968EADBA
:101910009FAD21978B839C838DAD9EAD89839A83E8
:101920001FA7F8ABE9AB7AAB6BAB5CAB4DAB2EABA7
:10193000AE969FADAE979FA398A6B9A62AA63BA642
:101940004CA65DA68EA6AC96EFADAC97EF8F2C960D
:10195000FFAD2C97F8A32D962FAD2D9729A32E968A
:101960004FAD2E974AA32F968FAD2F978BA36096DE
:101970009FAD60979CA36196EFAD6197EDA3AEA27A
:1019800040E050E0DE011796BE016D5E7F4FFD0125
:10199000E40FF51F808191814496FB01E40FF51F50
:1019A000208131818217930714F480E057C04E5F85
:1019B0005F4F4C30510559F7FFE16F2E712C6C0EC3
:1019C0007D1EAA968FADAA97AB969FADAB979C0153
:1019D000190144245524CE01C796E3968EAF9FAFDC
:1019E000E3972B968EAC9FAC2B97840C951CF30140
:1019F0002081318142815381648175818681978103
:101A0000E2E3AE2EBB24CC24DD24EE24FF2400E050
:101A100010E00E94A811C901F40120839183E1E044
:101A2000F0E0EC0FFD1FE40DF51D8081918162E374
:101A300070E00E94D019F10161931F0188E090E0ED
:101A4000680E791EE2E0F0E04E0E5F1EE3968EAD6A
:101A50009FADE3976816790621F681E0CE58DF4FF7
:101A6000CDBFDEBFCF91DF911F910F91FF90EF901F
:101A7000DF90CF90BF90AF909F908F907F906F90AE
:101A80005F904F903F902F9008959C0197FF03C067
:101A9000309521953F4FC9010895EF92FF920F9322
:101AA0001F938C017B0141E050E00E94FB10D801A4
:101AB000ED91FC91119783E08583ED91FC91119755
:101AC0008381806383838CE0F70186831782ED91A5
:101AD000FC911197848180618483ED91FC918481D4
:101AE000886084831F910F91FF90EF900895CF92AB
:101AF000DF92EF92FF920F93DF93CF93CDB7DEB7D4
:101B00002C97CDBFDEBF7C016B01DE011396ECECA0
:101B1000F0E283E001900D928150E1F7FE013696EC
:101B200083E0DF011D928A95E9F781E38E8385E1E9
:101B3000898783E18A878CE18B8781E18C878EE3BB
:101B4000898381E08A83C701B60140EC50E025E03B
:101B50000E944407F701838D8823E1F781E0E0EAE2
:101B6000F6E08483C70163E5AE014D5F5F4F23E07C
:101B700000E00E946207D7015B968C918823D9F719
:101B800082E0E0EAF6E08483C70163E5AE014A5FE4
:101B90005F4F22E000E00E946207F701838D8823F7
:101BA000E1F783E0E0EAF6E08483C70168E6AE018E
:101BB000475F5F4F24E000E00E946207D7015B9619
:101BC0008C918823D9F7C70168E6AE014F5F5F4F5C
:101BD00022E000E00E946207F701838D8823E1F78D
:101BE000D60112968C9112978C6012968C932C963B
:101BF000CDBFDEBFCF91DF910F91FF90EF90DF90CF
:101C0000CF900895CF92DF92EF92FF920F931F93A0
:101C1000CF93DF93EC017B016A01D7015B968C9136
:101C20008823D9F7C70163E5A60121E00AE00E94F5
:101C30006207F701848D8823E1F3858587FFEDCF67
:101C400042E050E0FA0132974F5F5F4FD701A40F97
:101C5000B51F415050401D968C911D97F595E79505
:101C60009701240F351F87FF0DC0EE0FFF1FEC0FEC
:101C7000FD1F1D968C91782F60E080819181860FE9
:101C8000971F0CC0EE0FFF1FEC0FFD1F1D968C91D0
:101C9000182F00E080819181800F911F80839183B4
:101CA000D9011D962C91820F911D808391834E5FE7
:101CB0005F4F4830510531F6888199819595879518
:101CC00095958795888399838A819B81959587953A
:101CD000959587958A839B838C819D819595879522
:101CE000959587958C839D83DF91CF911F910F915F
:101CF000FF90EF90DF90CF900895CF92DF92EF9218
:101D0000FF920F93CF93DF936C01EB017A018B8DE0
:101D10008823E9F7CE0168E6A70121E00AE00E94E6
:101D200062078C8D8823E9F38D8580FFF0CF20E05A
:101D300030E0D901B595A795AC0DBD1D2D5F3F4F86
:101D4000FE01E20FF31F95858C91890F8C93215032
:101D500030402630310569F7DF91CF910F91FF9028
:101D6000EF90DF90CF9008952F923F924F925F9225
:101D70006F927F928F929F92AF92BF92CF92DF929B
:101D8000EF92FF920F931F93DF93CF93CDB7DEB700
:101D90002C97CDBFDEBF3C0169837A834B835C8384
:101DA0002D833E830F831887E986FA862601150165
:101DB000CAA0DBA0ACA0BDA0EEA1FFA180818823BA
:101DC00009F063C000E010E0EE24FF245AC0F501E2
:101DD000E80FF91F10821D921D9201968330910524
:101DE000B1F780910C0880FFFCCF80910C088160D6
:101DF00080930C08C501B30148A559A50E947D0E2A
:101E0000C601B3014AA55BA50E94020EF201EE0DC8
:101E1000FF1DD6018D919C91119780839183F101D3
:101E2000EE0DFF1D12968D919C91139780839183E7
:101E3000F401EE0DFF1D14968D919C9115978083F2
:101E40009183ED81FE81E00FF11FD5018C9180839C
:101E5000EF81F885E00FF11F11968C911197808327
:101E6000E985FA85E00FF11F12968C9180830F5F50
:101E70001F4FE2E0F0E0EE0EFF1E0233110509F401
:101E800079C0D60180E090E0A2CF50E6E52EF12C9B
:101E9000E40CF51CB101605A7F4FA401405A5F4F1A
:101EA0002D813E81205D3F4FAF81B885D0968985D9
:101EB0009A85C0968B879C8701E310E0F7018081AB
:101EC000918182839383FB018081918182839383BB
:101ED000FA018081918182839383F90180818183DA
:101EE0008C9111968C931197EB85FC858081818371
:101EF000015010408EEF9FEFE80EF91E62507040C7
:101F0000425050402150304011973197EB87FC8769
:101F10000115110599F6C501B30148A559A50E94FF
:101F20007D0EC601B3014AA55BA50E94020ED60133
:101F30008D919C911197F2018083918312968D91DE
:101F40009C911397D1018D939C93F6018481958187
:101F5000D4018D939C93F5018081AD81BE818C93DA
:101F60008181EF81F8858083D50112968C91E98576
:101F7000FA858083C201B101A4012D813E810F81C8
:101F80001885E984FA84C980DA80AB80BC800E941D
:101F9000BE082C96CDBFDEBFCF91DF911F910F9170
:101FA000FF90EF90DF90CF90BF90AF909F908F9079
:101FB0007F906F905F904F903F902F9008951F9368
:101FC000FC018381682F772767FD709510E040E062
:101FD00050E013C0220F331F019748175907D4F35D
:101FE000C90186239723892B19F0220F331F122B47
:101FF0004F5F5F4F4730510529F085E090E021E0C9
:1020000030E0EBCF828187FD116000D00F92EDB7F9
:10201000FEB7319688EC90E2ADB7BEB711968D93BE
:102020009C931297128313820E94761A0F900F903E
:102030000F900F90812F1F9108951F93CF93DF93DF
:10204000EC01162F0E94DF0F811B682F70E081E0EA
:1020500090E0062E02C0880F991F0A94E2F7182F0D
:1020600040E050E0A1E0B0E0FB0131971AC0220F40
:10207000331F019748175907D4F38A81992787FDA1
:10208000909528233923232B51F0CF01841B950BE6
:102090009D0102C0220F331F8A95E2F7122B4F5F7A
:1020A0005F4F4617570729F021E030E086E090E0C7
:1020B000E1CF00D00F92EDB7FEB7319688EC90E2F9
:1020C000ADB7BEB711968D939C931297128313826E
:1020D0000E94761A0F900F900F900F90812FDF9132
:1020E000CF911F9108951F93CF93DF93EC01162F8B
:1020F0000E94DF0F811B682F70E081E090E0062EC8
:1021000002C0880F991F0A94E2F7182F40E050E0B0
:10211000A1E0B0E0FB0131971AC0220F331F0197F5
:1021200048175907D4F38A81992787FD909528236A
:102130003923232B51F0CF01841B950B9D0102C045
:10214000220F331F8A95E2F7122B4F5F5F4F46171E
:10215000570729F021E030E086E090E0E1CF8B8165
:1021600087FD119500D00F9288EC90E2EDB7FEB795
:1021700081839283812F992787FD90958383948310
:102180000E94761A0F900F900F900F90812FDF9181
:10219000CF911F910895EF92FF920F931F93CF93CA
:1021A000DF93EC01F62E00EA16E0EE24E394809132
:1021B000A4068E25F8018483CE016F2D0E94131191
:1021C0008823A9F3DF91CF911F910F91FF90EF909A
:1021D00008950F931F93CF93DF938C01EB0103C0FE
:1021E000C8010E94CB1069916623D1F7DF91CF918E
:1021F0001F910F910895FC01608371834283538383
:10220000118E108E138E128E0895FC0162837383DB
:102210000895FC01828D938D20E08F5F8370891378
:1022200021E0822F0895DC015A968C915A975B9693
:102230009C915B9720E08F5F83708917B1F021E05C
:102240005A968C915A97FD01E80FF11D648B8F5FB0
:1022500083705A968C935A97ED91FC9111978381D4
:102260008C7F12969C91892B8383822F0895FC0189
:10227000908D818D20E0981321E0822F0895DC015C
:1022800059968C915997FD01E80FF11D848159965B
:102290009C9159979F5F9F7059969C930895DC017C
:1022A00058969C9158979F5F9F7059968C9159971B
:1022B000ED91FC9111972081981711F480E0089519
:1022C00058968C915897FD01E80FF11D248358967C
:1022D0009C9381E00895CF93DF93DC015B969C9102
:1022E0005B975A968C915A97CD91DC9111978917EB
:1022F00021F48B818C7F8B830FC05B968C915B97D5
:10230000FD01E80FF11D848988835B968C915B97B2
:102310008F5F83705B968C93DF91CF910895FC0162
:1023200070FF03C08481816002C084818E7F8483BA
:1023300060830895FC01848180FF05C08081282F7F
:1023400030E0316003C08081282F30E0C90108955A
:10235000A2E7B0E0EEEAF1E10C94381A982E892E4B
:10236000712E88E0FE013196DF01682E1D926A947D
:10237000E9F729833A834B835C836D837E839F8255
:102380009887FE013996DF011D928A95E9F7A986A3
:10239000BA86CB86DC86ED86FE860F87188B8D810C
:1023A0009E81AF81B885B7FD07C0E1961CAE1DAE1A
:1023B0001EAE1FAEE19764C0219581E0121608F0B1
:1023C00080E0319591E0131608F090E0B32FB81B30
:1023D00081E03B1708F080E0982B419531E014161E
:1023E00008F030E0A42FA91B81E04A1708F080E034
:1023F000382B519591E0151608F090E0F52FF31B5E
:1024000081E05F1708F080E0982B619531E01616A7
:1024100008F030E0E62FE91B81E06E1708F080E05D
:10242000382B719541E0171608F040E0572F531BE9
:1024300081E0751708F080E0482B892D819591E0A7
:10244000181608F090E0682E641A462D31E08615C3
:1024500008F030E0932B882D8195891B2983BA835E
:10246000AB83FC83ED835E834F8388872FEF3FEF41
:102470004FEF5FEFE1962CAF3DAF4EAF5FAFE1970F
:102480008D859E85AF85B889B7FF6AC0E1964CAD52
:102490005DAD6EAD7FADE1974095509560957095BF
:1024A000E1964CAF5DAF6EAF7FAFE197A19481E055
:1024B0001A1408F080E0B19491E01B1408F090E049
:1024C0006B2D681B81E0B61608F080E0982BC19454
:1024D00021E01C1408F020E05C2D591B81E0C5169A
:1024E00008F080E0282BD19491E01D1408F090E0D2
:1024F0004D2D421B81E0D41608F080E0982BE1942A
:1025000021E01E1408F020E03E2D391B81E0E31687
:1025100008F080E0282BF19491E01F1408F090E07F
:102520007F2D721B272F81E0F71608F080E0982B93
:10253000019511E0101608F010E0802F891B982FEC
:1025400081E0091708F080E0182B872D8195811B09
:10255000A9866A875B874C873D872E879F87888BF4
:1025600099812A813B814C815D816E817F81A88523
:10257000B9851A850B85FC84ED84DE84CF84B88808
:1025800088E0E1E18E2E912C8C0E9D1EF401682EC8
:1025900011926A94E9F7998B2A8B3B8B4C8B5D8B5C
:1025A0006E8B7F8BA88F9E01275E3F4FF9011192A2
:1025B0008A95E9F7B98F1A8F0B8FFC8EED8EDE8E20
:1025C000CF8EB8A2298C3A8C4B8C5C8CED8CFE8C17
:1025D0000F8D18A169887A888B889C8821966CAEAB
:1025E0007DAE8EAE9FAE21976D887E888F88988C49
:1025F000E114F1040105110509F0D9C36214730453
:102600008404950408F057C100E0201600E030066D
:1026100001E0400600E0500688F41FEF2116310467
:102620004104510439F030F048E0E42EF12C012D42
:10263000112D18C0EE24FF24870114C020E02216BB
:1026400020E0320620E0420621E0520630F038E178
:10265000E32EF12C012D112D05C020E1E22EF12CED
:10266000012D112DD201C1010E2C04C0B695A795E4
:10267000979587950A94D2F783519F4DDC012C9151
:1026800080E290E0A0E0B0E08E199F09A00BB10BB2
:102690007C018D01E21AF10801091109E114F1042C
:1026A00001051105D1F10E2C04C0220C331C441C71
:1026B000551C0A94D2F7A40193010E2C04C0220FDA
:1026C000331F441F551F0A94D2F780E290E08E1901
:1026D0009F0921966CAC7DAC8EAC9FAC219704C059
:1026E00096948794779467948A95D2F7622A732A8E
:1026F000842A952A2196ACACBDACCEACDFAC219738
:1027000004C0AA0CBB1CCC1CDD1CEA94D2F7219699
:10271000ACAEBDAECEAEDFAE21976201EE24FF249B
:102720002996CCAEDDAEEEAEFFAE299792018101C7
:10273000207030702D960CAF1DAF2EAF3FAF2D9790
:10274000C401B301A70196010E94161A7B018C01F6
:10275000C401B30129962CAD3DAD4EAD5FAD2997B7
:102760000E94161AC901DA013C014D01C401B301EE
:102770002D962CAD3DAD4EAD5FAD2D970E94E3196A
:102780009B01AC018701FF24EE242196ACACBDACCB
:10279000CEACDFAC2197C601AA27BB275701680141
:1027A000A82AB92ACA2ADB2AA216B306C406D50665
:1027B000E0F408946108710881089108A20CB31C28
:1027C000C41CD51CA214B304C404D50470F0A21612
:1027D000B306C406D50648F4089461087108810858
:1027E0009108A20CB31CC41CD51CA21AB30AC40ABB
:1027F000D50AC601B50129962CAD3DAD4EAD5FADF4
:1028000029970E94161A7B018C01C601B5012996F1
:102810002CAD3DAD4EAD5FAD29970E94161AC90192
:10282000DA015C016D01C601B5012D962CAD3DADFF
:102830004EAD5FAD2D970E94E3199B01AC0187015E
:10284000FF24EE2421968CAD9DADAEADBFAD21979A
:10285000A070B070E82AF92A0A2B1B2BE216F306A7
:1028600004071507C0F40894A108B108C108D108ED
:10287000E20CF31C041D151DE214F30404051505F8
:1028800050F0E216F3060407150728F40894A1088F
:10289000B108C108D108D30199278827860175019D
:1028A000E82AF92A0A2B1B2B2596ECAEFDAE0EAFBB
:1028B0001FAF2597EBC4211431044104510471F476
:1028C00061E070E080E090E020E030E040E050E047
:1028D0000E94161AC901DA011C012D0100E0201620
:1028E00000E0300601E0400600E0500688F41FEFEB
:1028F000211631044104510431F028F048E050E041
:1029000060E070E017C040E050E060E070E012C0AE
:1029100020E0221620E0320620E0420621E05206A6
:1029200028F048E150E060E070E004C040E150E091
:1029300060E070E0D201C101042E04C0B695A795F5
:10294000979587950A94D2F783519F4DDC012C917E
:10295000E0E2EE2EF12C012D112DD801C701841BD0
:10296000950BA60BB70B821B9109A109B109009722
:10297000A105B10561F464015301A218B308C408AC
:10298000D50831E0632E712C812C912C24C1E39663
:102990008FAFE397082E04C0220C331C441C551C37
:1029A0000A94D2F7EE2DE81B640153010E2E04C0E9
:1029B000D694C794B794A7940A94D2F7A40193012C
:1029C000E3960FACE39704C0220F331F441F551F3B
:1029D0000A94D2F721966CAC7DAC8EAC9FAC21975B
:1029E0000E2E04C096948794779467940A94D2F735
:1029F00084017301E22AF32A042B152BE9AEFAAE07
:102A00000BAF1CAF32018824992492018101207000
:102A1000307061960CAF1DAF2EAF3FAF6197C6010E
:102A2000B501A40193010E94161A7B018C01C60115
:102A3000B501A40193010E94161AC901DA01659635
:102A40008CAF9DAFAEAFBFAF6597BC01CD016196B6
:102A50002CAD3DAD4EAD5FAD61970E94E3199B017A
:102A6000AC018701FF24EE24A9ACBAACCBACDCAC42
:102A7000C601AA27BB275C016D01AE28BF28C02A6A
:102A8000D12AA216B306C406D50660F565966CADCC
:102A90007DAD8EAD9FAD6597615070408040904098
:102AA00065966CAF7DAF8EAF9FAF6597A20CB31CE0
:102AB000C41CD51CA214B304C404D50498F0A216F7
:102AC000B306C406D50670F4615070408040904053
:102AD00065966CAF7DAF8EAF9FAF6597A20CB31CB0
:102AE000C41CD51CA21AB30AC40AD50AC601B50172
:102AF000A40193010E94161A7B018C01C601B50145
:102B0000A40193010E94161AC901DA013C014D018A
:102B1000C401B30161962CAD3DAD4EAD5FAD619783
:102B20000E94E3199B01AC018701FF24EE2489ADCB
:102B30009AADABADBCADA070B07057016801A82ACA
:102B4000B92ACA2ADB2AA216B306C406D506E0F4BF
:102B500008946108710881089108A20CB31CC41C78
:102B6000D51CA214B304C404D50470F0A216B30695
:102B7000C406D50648F408946108710881089108D4
:102B8000A20CB31CC41CD51C21968CAD9DADAEAD62
:102B9000BFAD2197E3960FACE39704C0880F991F50
:102BA000AA1FBB1F0A94D2F721968CAF9DAFAEAF80
:102BB000BFAF2197A21AB30AC40AD50A6596ECAC36
:102BC000FDAC0EAD1FAD6597D70199278827682A00
:102BD000792A8A2A9B2A82012227332769960CAFF9
:102BE0001DAF2EAF3FAF6997A201910140705070A9
:102BF0006D962CAF3DAF4EAF5FAF6D97C601B5017F
:102C000069962CAD3DAD4EAD5FAD69970E94161A29
:102C10007B018C01C601B50169962CAD3DAD4EAD71
:102C20005FAD69970E94161AC901DA01A1968CAFAF
:102C30009DAFAEAFBFAFA197BC01CD016D962CADDE
:102C40003DAD4EAD5FAD6D970E94E3199B01AC01A8
:102C50008701FF24EE242196ACACBDACCEACDFAC3A
:102C60002197C601AA27BB2757016801A82AB92ABC
:102C7000CA2ADB2AA216B306C406D50660F5A196B9
:102C80006CAD7DAD8EAD9FADA19761507040804021
:102C90009040A1966CAF7DAF8EAF9FAFA197A20C75
:102CA000B31CC41CD51CA214B304C404D50498F0EE
:102CB000A216B306C406D50670F461507040804079
:102CC0009040A1966CAF7DAF8EAF9FAFA197A20C45
:102CD000B31CC41CD51CA21AB30AC40AD50AC60167
:102CE000B50169962CAD3DAD4EAD5FAD69970E94C3
:102CF000161A7B018C01C601B50169962CAD3DAD5C
:102D00004EAD5FAD69970E94161AC901DA015C01E8
:102D10006D01C601B5016D962CAD3DAD4EAD5FADFB
:102D20006D970E94E3199B01AC018701FF24EE24FB
:102D300021968CAD9DADAEADBFAD2197A070B070AA
:102D4000E82AF92A0A2B1B2BE216F30604071507BB
:102D5000C0F40894A108B108C108D108E20CF31C22
:102D6000041D151DE214F3040405150550F0E216C8
:102D7000F3060407150728F40894A108B108C10850
:102D8000D108A196ECACFDAC0EAD1FADA197D7015B
:102D90009927882796018501082B192B2A2B3B2B75
:102DA00025960CAF1DAF2EAF3FAF259772C26E14A4
:102DB0007F048006910608F45FC220E0E21620E05E
:102DC000F20621E0020720E0120788F43FEFE31645
:102DD000F1040105110531F028F048E050E060E011
:102DE00070E017C040E050E060E070E012C040E0EA
:102DF000E41640E0F40640E0040741E0140728F040
:102E000048E150E060E070E004C040E150E060E084
:102E100070E0D801C701042E04C0B695A795979518
:102E200087950A94D2F783519F4DDC012C9130E2B3
:102E3000A32EB12CC12CD12CD601C501841B950B1E
:102E4000A60BB70B821B9109A109B1090097A10537
:102E5000B10599F4E614F7040805190508F4FEC154
:102E600021966CAC7DAC8EAC9FAC21976214730440
:102E70008404950408F0F2C1FFC1E2968FAFE29797
:102E8000082E04C0EE0CFF1C001F111F0A94D2F77D
:102E90006A2D681BD201C101062E04C0B695A79504
:102EA000979587950A94D2F75C016D01AE28BF28EB
:102EB000C02AD12AADAABEAACFAAD8AE720161019A
:102EC000E2960FACE29704C0CC0CDD1CEE1CFF1C9C
:102ED0000A94D2F7C9AADAAAEBAAFCAA64015301A0
:102EE000062E04C0D694C794B794A7940A94D2F738
:102EF000D401C301E2960FACE29704C0880F991F7A
:102F0000AA1FBB1F0A94D2F72196ECACFDAC0EAD04
:102F10001FAD219704C016950795F794E7946A951D
:102F2000D2F737014801682A792A8A2A9B2A6DA696
:102F30007EA68FA698AAEDA8FEA80FA918AD380105
:102F4000882499249801870120703070A5960CAFD1
:102F50001DAF2EAF3FAFA597C601B501A4019301E8
:102F60000E94161A7B018C01C601B501A4019301D0
:102F70000E94161AC901DA011C012D01C201B1011A
:102F8000A5962CAD3DAD4EAD5FADA5970E94E31962
:102F90009B01AC018701FF24EE24ADA4BEA4CFA405
:102FA000D8A8C601AA27BB2757016801A82AB92AB1
:102FB000CA2ADB2AA216B306C406D50600F5089471
:102FC0002108310841085108EDA8FEA80FA918AD45
:102FD000AE0CBF1CC01ED11EAE14BF04C006D1066D
:102FE00070F0A216B306C406D50648F4089421086A
:102FF000310841085108AE0CBF1CC01ED11EA21AD8
:10300000B30AC40AD50AC601B501A40193010E94FE
:10301000161A7B018C01C601B501A40193010E941F
:10302000161AC901DA013C014D01C401B301A5968C
:103030002CAD3DAD4EAD5FADA5970E94E3199B0150
:10304000AC018701FF24EE248DA59EA5AFA5B8A9EC
:10305000A070B07057016801A82AB92ACA2ADB2AD1
:10306000A216B306C406D50600F5089461087108D7
:10307000810891086DA97EA98FA998ADA60EB71EEB
:10308000C81ED91EA616B706C806D90670F0A21625
:10309000B306C406D50648F408946108710881088F
:1030A0009108A60EB71EC81ED91ED601C501821BE7
:1030B000930BA40BB50B89A79AA7ABA7BCA7D1010B
:1030C0009927882764015301A82AB92ACA2ADB2A2A
:1030D0002596ACAEBDAECEAEDFAE259786017501AE
:1030E0002FEF3FEF40E050E0E222F32204231523CC
:1030F000A60166277727AD964CAF5DAF6EAF7FAF69
:10310000AD97A9A8BAA8CBA8DCA86FEF7FEF80E0A5
:1031100090E0A622B722C822D92289A99AA9ABA9F0
:10312000BCA91D0144245524C801B701A60195017D
:103130000E94E319A9966CAF7DAF8EAF9FAFA997A0
:10314000C801B701A20191010E94E3193B014C01A2
:10315000AD966CAD7DAD8EAD9FADAD97A6019501E1
:103160000E94E3197B018C01AD966CAD7DAD8EADF7
:103170009FADAD97A20191010E94E3195B016C0123
:10318000A8019701260D371D481D591DA9966CAC45
:103190007DAC8EAC9FACA997C401AA27BB27280F92
:1031A000391F4A1F5B1F2E153F054007510748F482
:1031B000E12CF12C61E0062F112DAE0CBF1CC01EBE
:1031C000D11ECA01AA27BB27BC01CD016A0D7B1DF8
:1031D0008C1D9D1D69A47AA48BA49CA466167706F9
:1031E0008806990650F1661577058805990509F056
:1031F0004DC0D90199278827A9962CAD3DAD4EAD7C
:103200005FADA99740705070820F931FA41FB51F28
:1032100021962CAD3DAD4EAD5FAD2197E2960FAC42
:10322000E29704C0220F331F441F551F0A94D2F7A0
:10323000281739074A075B0748F525960CAD1DADE1
:103240002EAD3FAD259701501040204030402596CF
:103250000CAF1DAF2EAF3FAF259718C06624772463
:10326000430121E030E040E050E025962CAF3DAF37
:103270004EAF5FAF25970DC0662477244301259696
:103280001CAE1DAE1EAE1FAE259703C0662477246C
:103290004301FE01B19688E0DF011D928A95E9F7AE
:1032A0002596ACACBDACCEACDFAC2597A9A2BAA23A
:1032B000CBA2DCA26DA27EA28FA298A622962FADF1
:1032C00022973AA14BA15CA1662D7EA1DFA098A513
:1032D000E196ECACFDAC0EAD1FADE197E114F1044D
:1032E0000105110509F456C0219581E0121608F078
:1032F00080E03195E1E0131608F0E0E0932E981A93
:1033000081E0391508F080E0E82B4195F1E01416D2
:1033100008F0F0E0A42EAE1A81E04A1508F080E033
:10332000F82B5195E1E0151608F0E0E0B52EBF1A34
:1033300081E05B1508F080E0E82B6195F1E016165E
:1033400008F0F0E0A62FAE1B81E06A1708F080E0DD
:10335000F82B7195E1E0171608F0E0E0C72ECF1AC0
:1033600081E07C1508F080E0E82B8D2D8195F1E05F
:10337000181608F0F0E0D82EDE1AE1E08D1508F0FE
:10338000E0E0FE2B892F8195392DA5016A2F7C2D38
:10339000982F9F1B8D2DCE58DF4FE2E10C94541ACD
:1033A00097FB092E07260AD077FD04D02BD006D034
:1033B00000201AF4709561957F4F0895F6F7909567
:1033C00081959F4F0895629FD001739FF001829F66
:1033D000E00DF11D649FE00DF11D929FF00D839FA4
:1033E000F00D749FF00D659FF00D9927729FB00D41
:1033F000E11DF91F639FB00DE11DF91FBD01CF0154
:1034000011240895AA1BBB1B51E107C0AA1FBB1FB3
:10341000A617B70710F0A61BB70B881F991F5A9560
:10342000A9F780959095BC01CD010895A1E21A2ECF
:10343000AA1BBB1BFD010DC0AA1FBB1FEE1FFF1F58
:10344000A217B307E407F50720F0A21BB30BE40BA8
:10345000F50B661F771F881F991F1A9469F76095EF
:103460007095809590959B01AC01BD01CF010895A9
:103470002F923F924F925F926F927F928F929F9284
:10348000AF92BF92CF92DF92EF92FF920F931F9372
:10349000CF93DF93CDB7DEB7CA1BDB0B0FB6F89423
:1034A000DEBF0FBECDBF19942A88398848885F8453
:1034B0006E847D848C849B84AA84B984C884DF80D4
:1034C000EE80FD800C811B81AA81B981CE0FD11DB8
:1034D0000FB6F894DEBF0FBECDBFED010895FB011E
:1034E000DC0101900D920020E1F70895DF93CF9366
:1034F000CDB7DEB7FE0136966191719180914D2274
:1035000090914E22AF010E94B31ACF91DF9108959E
:103510000F931F93DF93CF93CDB7DEB72E97CDBF19
:10352000DEBF0E891F8986E08C8309831A838FEFA3
:103530009FE78D839E839E01265E3F4FCE010196BD
:10354000688D798DA9010E94B31A2F813885020FE9
:10355000131FF80110822E96CDBFDEBFCF91DF91F1
:103560001F910F9108952F923F924F925F926F9209
:103570007F928F929F92AF92BF92CF92DF92EF9203
:10358000FF920F931F93DF93CF93CDB7DEB72B97A7
:10359000CDBFDEBF3C012B015A01FC011682178210
:1035A000838181FD03C06FEF7FEFC6C19AE0892E52
:1035B0001E010894211C311CF3012381F20123FD1B
:1035C000859123FF81912F01882309F4B2C18532AF
:1035D00039F423FD859123FF81912F01853229F450
:1035E00090E0B3010E94C91CE7CF982FFF24EE247E
:1035F0009924FFE1FF15D0F09B3269F09C3228F44A
:10360000903259F0933291F40EC09D3249F09033CC
:1036100069F441E024C052E0F52A84E0F82A28C089
:1036200098E0F92A25C0E0E1FE2A22C0F7FC29C073
:10363000892F80538A3070F4F6FE05C0989C902C38
:103640001124980E15C0E89CE02C1124E80EF0E23D
:10365000FF2A0EC09E3229F4F6FC6BC140E4F42A26
:1036600007C09C3619F450E8F52A02C0983649F490
:10367000F20123FD959123FF91912F01992309F0E8
:10368000B8CF892F8554833018F08052833038F4B6
:1036900044E050E0A40EB51E5FE359830FC093369B
:1036A00031F0933779F0933509F056C020C0F50119
:1036B0008081898342E050E0A40EB51E610101E0E3
:1036C00010E012C0F501C080D180F6FC03C06FEF9E
:1036D0007FEF02C0692D70E042E050E0A40EB51EFD
:1036E000C6010E94BE1C8C015FE7F52214C0F501E3
:1036F000C080D180F6FC03C06FEF7FEF02C0692D60
:1037000070E042E050E0A40EB51EC6010E94B31C5A
:103710008C0150E8F52AF3FE07C01AC080E290E061
:10372000B3010E94C91CEA948E2D90E00817190776
:10373000A8F30EC0F601F7FC8591F7FE81916F01A9
:1037400090E0B3010E94C91CE110EA9401501040BE
:103750000115110579F7EAC0943611F0993669F52B
:10376000F7FE08C0F501208131814281538184E058
:1037700090E00AC0F501808191819C01442737FDCA
:103780004095542F82E090E0A80EB91E9FE6F922E2
:1037900057FF09C050954095309521953F4F4F4FA9
:1037A0005F4FE0E8FE2ACA01B901A1012AE030E03A
:1037B0000E94F51CD82ED21840C0953729F41F2D31
:1037C0001F7E2AE030E01DC01F2D197F9F3661F05B
:1037D000903720F4983509F0ACC00FC0903739F01D
:1037E000983709F0A6C004C028E030E00AC0106194
:1037F00014FD146020E130E004C014FD166020E1E7
:1038000032E017FF08C0F5016081718182819381E8
:1038100044E050E008C0F50180819181BC0180E066
:1038200090E042E050E0A40EB51EA1010E94F51CFC
:10383000D82ED2188FE7F82EF122F6FE0BC05EEFDD
:10384000F522D91438F4F4FE07C0F2FC05C08FEE5F
:10385000F82202C01D2D01C0192DF4FE0DC0FE017D
:10386000ED0DF11D8081803319F499EEF92208C025
:103870001F5FF2FE05C003C08F2D867809F01F5F21
:103880000F2DF3FC14C0F0FE0FC01E1510F09D2C80
:103890000BC09D2C9E0C911A1E2D06C080E290E05C
:1038A000B3010E94C91C1F5F1E15C0F304C01E1582
:1038B00010F4E11A01C0EE2404FF0FC080E390E091
:1038C000B3010E94C91C02FF1DC001FD03C088E7AF
:1038D00090E00EC088E590E00BC0802F867891F0D4
:1038E00001FF02C08BE201C080E2F7FC8DE290E0B4
:1038F000B3010E94C91C06C080E390E0B3010E949E
:10390000C91C9A94D914C0F3DA94F101ED0DF11D9C
:10391000808190E0B3010E94C91CDD20A9F706C098
:1039200080E290E0B3010E94C91CEA94EE20C1F746
:1039300043CEF30166817781CB012B96CDBFDEBFED
:10394000CF91DF911F910F91FF90EF90DF90CF907B
:10395000BF90AF909F908F907F906F905F904F90AF
:103960003F902F900895FC01059061507040011028
:10397000D8F7809590958E0F9F1F0895FC01615098
:10398000704001900110D8F7809590958E0F9F1F81
:1039900008950F931F93CF93DF938C01EB018B81DD
:1039A00081FF1BC082FF0DC02E813F818C819D81D4
:1039B0002817390764F4E881F9810193E883F983D2
:1039C00006C0E885F985802F1995892B31F48E8101
:1039D0009F8101968E839F8302C00FEF1FEFC80166
:1039E000DF91CF911F910F910895FA01AA272830F6
:1039F00051F1203181F1E8946F936E7F6E5F7F4FBC
:103A00008F4F9F4FAF4FB1E03ED0B4E03CD0670F37
:103A1000781F891F9A1FA11D680F791F8A1F911D8A
:103A2000A11D6A0F711D811D911DA11D20D009F4DA
:103A300068943F912AE0269F11243019305D31931C
:103A4000DEF6CF010895462F4770405D4193B3E005
:103A50000FD0C9F7F6CF462F4F70405D4A3318F0AC
:103A6000495D31FD4052419302D0A9F7EACFB4E05D
:103A7000A6959795879577956795BA95C9F7009715
:103A80006105710508959B01AC010A2E06945795B6
:103A9000479537952795BA95C9F7620F731F841F0D
:0A3AA000951FA01D0895F894FFCFB4
:103AAA005374617274696E67007269736520253494
:103ABA00642074696C742025346420726F74202524
:103ACA00346420666F7220253464200A0D006972FE
:103ADA000A0D00546F6F20436C6F73650A0D005412
:103AEA006F6F204661720A0D00546F6F204C6F771A
:103AFA000A0D00546F6F20486967680A0D00476F06
:103B0A006F6420486F72697A0A0D00476F6F6420EC
:103B1A00566572740A0D00205820253464205920F5
:103B2A00253464205A2025346420782025346420E2
:103B3A007920253464207A202534642076202532A1
:103B4A00642068202532640A0D000000000000008D
:103B5A00000000000000000000000000000000005B
:103B6A00000000000000000025690A002C08080077
:103B7A00000000000000000000000000000000003B
:103B8A000000000000000000000000000000010228
:103B9A0002030303030404040404040404050505DE
:103BAA0005050505050505050505050505060606B8
:103BBA00060606060606060606060606060606069B
:103BCA000606060606060606060606060607070788
:103BDA00070707070707070707070707070707076B
:103BEA00070707070707070707070707070707075B
:103BFA00070707070707070707070707070707074B
:103C0A000707070707070707070707070708080837
:103C1A00080808080808080808080808080808081A
:103C2A00080808080808080808080808080808080A
:103C3A0008080808080808080808080808080808FA
:103C4A0008080808080808080808080808080808EA
:103C5A0008080808080808080808080808080808DA
:103C6A0008080808080808080808080808080808CA
:103C7A0008080808080808080808080808080808BA
:0E3C8A000808080808080808080808080800C4
:00000001FF
