:100000000C9434000C9451000C9451000C94510049
:100010000C9451000C9451000C9451000C9451001C
:100020000C9451000C9451000C9451000C9451000C
:100030000C9451000C9451000C9451000C945100FC
:100040000C9451000C9451000C9451000C945100EC
:100050000C9451000C9451000C9451000C945100DC
:100060000C9451000C94510011241FBECFEFD8E026
:10007000DEBFCDBF11E0A0E0B1E0E8EFF2E002C0EA
:1000800005900D92A030B107D9F711E0A0E0B1E0E2
:1000900001C01D92A030B107E1F70E9445010C9408
:1000A0007A010C94000080FF03C02FEF3FEF02C0E5
:1000B00021E030E0C90108958130910519F00297DF
:1000C00099F408C0569A83E884BD83E085BD86E034
:1000D00087BD08958AB180668AB983EC84BD82E0C9
:1000E00085BD86E087BD88BD08956130710569F4DE
:1000F0008130910519F00297A1F403C087B58F5F95
:1001000087BD88B58F5F88BD08958130910519F04E
:10011000029739F403C087B5815087BD88B58150F7
:1001200088BD08954F925F926F927F928F929F92B7
:10013000AF92BF92CF92DF92EF92FF920F931F93F5
:10014000CF93DF934C01EE24FF242CE3422E512C5D
:1001500094EC692E99E0792E3DC080917A0084FF5D
:10016000FCCF209178009091790080917C00807F75
:1001700080937C00192F00E0C801820F911D9983A4
:100180008883A114B10419F461E070E002C06FEF3C
:100190007FEF81E090E00E947500C3010197F1F7C5
:1001A0000894C11CD11C22968EE1C816D10459F0C6
:1001B00080917C00816080937C0080917A008064D3
:1001C00080937A00CACF0894E11CF11C89E1E816FB
:1001D000F10489F0E49CE001E59CD00DF49CD00D85
:1001E0001124C80DD91DCC24DD2481E0A82EB12C0A
:1001F000AE20BF20DDCFDF91CF911F910F91FF90F7
:10020000EF90DF90CF90BF90AF909F908F907F90B6
:100210006F905F904F90089590917C00982B9093F1
:100220007C0080917A00806480937A0080917A00CB
:1002300084FFFCCF409178009091790080917C0000
:10024000807F80937C00392F20E0240F311DC9016D
:10025000089580E480937C0080E880937A0008957C
:10026000982F8091C00085FFFCCF9093C600089521
:10027000FC0107C08091C00085FFFCCF9093C600B1
:10028000319690819923B1F70895DF93CF93CDB73D
:10029000DEB7CC5DD5400FB6F894DEBF0FBECDBF44
:1002A00080E480937C0080E880937A0081E090E095
:1002B0000E945C0080E197E229E130E0F90131978A
:1002C000F1F70197D9F7CE0101960E949200C4522E
:1002D000DA4F0FB6F894DEBF0FBECDBFCF91DF91DE
:1002E0000895FB01942F9823409580818423892BC6
:0802F00080830895F894FFCF0C
:00000001FF
