:100000000C94F4000C9415010C9415010C9415013A
:100010000C9415010C9415010C9415010C94150108
:100020000C9415010C9415010C9415010C941501F8
:100030000C9415010C9417010C9415010C941501E6
:100040000C9415010C9415010C9415010C941501D8
:100050000C9415010C9415010C9415010C941501C8
:100060000C9415010C9415010C9415010C941501B8
:100070000C9415010C9415010C9415010C941501A8
:100080000C9415010C9415010C9415010C94150198
:100090000C9415010C9415010C9415010C94150188
:1000A0000C9415010C9415010C9415010C94150178
:1000B0000C9415010C9415010C9415010C94150168
:1000C0000C9415010C9415010C9415010C94150158
:1000D0000C9415010C9415010C9415010C94150148
:1000E0000C9415010C9415010C946B010C944101B6
:1000F0000C9415010C9415010C9415010C94150128
:100100000C9415010C9415010C9415010C94150117
:100110000C9415010C9415010C9415010C94150107
:100120000C9415010C9415010C9415010C941501F7
:100130000C9415010C9415010C9415010C941501E7
:100140000C9415010C9415010C9415010C941501D7
:100150000C9415010C9415010C9415010C941501C7
:100160000C9415010C9415010C9415010C941501B7
:100170000C9415010C9415010C9415010C941501A7
:100180000C9415010C9415010C9415010C94150197
:100190000C9415010C9415010C9415010C94150187
:1001A0000C9415010C9415010C9415010C94150177
:1001B0000C9415010C9415010C9415010C94150167
:1001C0000C9415010C9415010C9415010C94150157
:1001D0000C9415010C9415010C9415010C94150147
:1001E0000C9415010C94150111241FBECFEFDFE311
:1001F000DEBFCDBF00E00CBF10E2A0E0B0E2E4ED56
:10020000F7E100E00BBF02C007900D92AC34B107DC
:10021000D9F710E2ACE4B0E201C01D92AD38B107ED
:10022000E1F70E94A7010C94E80B0C9400001F92C8
:100230000F920FB60F920BB60F9211242F933F938C
:100240004F935F936F937F938F939F93AF93BF93DE
:10025000EF93FF938DE490E20E94D205FF91EF911E
:10026000BF91AF919F918F917F916F915F914F91CE
:100270003F912F910F900BBE0F900FBE0F901F90CC
:1002800018951F920F920FB60F920BB60F92112472
:100290002F933F934F935F936F937F938F939F938E
:1002A000AF93BF93EF93FF938BE690E20E94A70872
:1002B000FF91EF91BF91AF919F918F917F916F913E
:1002C0005F914F913F912F910F900BBE0F900FBEFA
:1002D0000F901F9018951F920F920FB60F920BB6AA
:1002E0000F9211242F933F934F935F936F937F93BC
:1002F0008F939F93AF93BF93EF93FF938BE690E21F
:100300000E948B088BE690E20E947B0880936A2013
:1003100080916A20813729F489E790E061E00E94AA
:10032000090681E080934C20FF91EF91BF91AF913E
:100330009F918F917F916F915F914F913F912F91FD
:100340000F900BBE0F900FBE0F901F9018952F921D
:100350003F924F925F926F927F928F929F92AF9255
:10036000BF92CF92DF92EF92FF920F931F93DF9392
:10037000CF93CDB7DEB7CD58D040CDBFDEBF1B8207
:100380001C821D821E821F82188619861A86DE0133
:100390001D96E5E4F0E283E001900D928150E1F7D3
:1003A000FE01709683E0DF011D928A95E9F781E3F3
:1003B000888B80E3898385E18E8B84E08F8B89E154
:1003C000888F81E1898F8EE38B8781E08C878AE13A
:1003D0008A83DE015396E2E4F0E283E001900D921D
:1003E0008150E1F7DE015A96ECE3F0E286E00190FD
:1003F0000D928150E1F7E0E4F9E081E0809340095B
:1004000093E3918320E43CE926A337A3E0E4F8E0FA
:1004100080934008918326A337A3E0E0F8E080931F
:10042000000883E0818326A337A38091A200876020
:10043000E0EAF0E08283789480E3809360068CE3C6
:100440008093400688E0E0E4F6E084838DE490E267
:1004500060E874E040EC50E025E00E94CA0480911E
:1004600068208823E1F78DE490E263E5AE01435F05
:100470005F4F23E000E00E94E80480916820882319
:10048000E1F78DE490E263E5AE01405F5F4F22E06B
:1004900000E00E94E804809168208823E1F78DE461
:1004A00090E268E6AE014A5E5F4F24E000E00E9401
:1004B000E804809168208823E1F78DE490E268E603
:1004C000AE01455F5F4F22E000E00E94E8048091AA
:1004D00068208823E1F7809182048C60E0E8F4E0F2
:1004E000828388E08093800613E01093A0068BE659
:1004F00090E260EA7AE041E050E00E943708E09143
:100500006B20F0916C201583838180638383A0EA44
:10051000BAE08CE016968C93169717961C928481FD
:100520008061848384818860848301E010E04424B6
:100530005524C857DF4F18821982C858D040CA576F
:10054000DF4F18821982C658D040662477248091E4
:100550004C20882309F4B5C010924C2060916A2089
:100560008BE690E20E94070880916A20823709F4A6
:10057000C8C080916A208337B9F5EDB7FEB73C97C4
:10058000EDBFFEBF319620E230E02C0F3D1FADB72E
:10059000BEB711962D933C93129780E090E2828330
:1005A00093834482558266827782C857DF4FA88141
:1005B000B981C858D040A087B187CA57DF4F28817A
:1005C0003981C658D040228733870E941D098DB7D4
:1005D0009EB70C968DBF9EBF8BE690E2BE01605E1B
:1005E0007F4F0E94250874C080916A20853729F4C6
:1005F000A9E1B0E04A0E5B1E64C080916A20843697
:1006000029F4E7EEFFEF4E0E5F1E5BC080916A207B
:10061000833679F4C857DF4F28813981C858D040D4
:10062000265F3F4FC857DF4F28833983C858D040D3
:1006300048C080916A20883771F4C857DF4F88819D
:100640009981C858D0400A97C857DF4F888399834B
:10065000C858D04036C080916A20813629F4AAE07B
:10066000B0E06A0E7B1E2DC080916A20853629F489
:10067000E6EFFFEF6E0E7F1E24C080916A20843764
:1006800079F4CA57DF4F28813981C658D040265F98
:100690003F4FCA57DF4F28833983C658D04011C017
:1006A00080916A20823669F4CA57DF4F8881998128
:1006B000C658D0400A97CA57DF4F88839983C658D7
:1006C000D04001151105E9F00130110509F03FCFC7
:1006D000A0EDB7E0A0936809B0936909ECEAFDE0EA
:1006E000E0936808F0936908A0936A09B0936B09D6
:1006F00022E63CE020936A0830936B0801E010E0AA
:1007000026CF80910C0880FFABC081E0E0E0F8E0EC
:100710008487809168208823E1F78DE490E268E681
:10072000AE014E5F5F4F21E00AE00E94E80432E034
:100730003093A406809169208823E1F380915A20A8
:1007400080FFE7CF90915D208B89890F8B8B9091F3
:100750005F208C89890F8C8B909161208D89890F06
:100760008D8B809168208823E1F78DE490E263E52A
:10077000AE014F5F5F4F21E00AE00E94E80483E092
:100780008093A406809169208823E1F381E080931F
:10079000A40680915A2087FFE4CF42E050E0DA01BE
:1007A000A25BBF4D1D968C911D9742505040BA01DF
:1007B000759567954E5F5F4FFA01E35BFF4D87FFCD
:1007C00023C01D963C912585FB01EE0FFF1FA1E084
:1007D000B0E0AC0FBD1FEA0FFB1F818D928D820F21
:1007E000911DC557DF4F3883CB58D040C657DF4FD8
:1007F0001882CA58D040C657DF4F28813981CA585D
:10080000D040820F931F22C01D963C912585FB018D
:10081000EE0FFF1F81E090E08C0F9D1FE80FF91F86
:10082000818D928D820F911DC357DF4F3883CD5834
:10083000D040C457DF4F1882CC58D040C457DF4F48
:10084000A881B981CC58D0408A0F9B1F818F928F8D
:100850004E5F5F4F4830510509F0A1CF1092A406BA
:10086000EA8DFB8DCC57DF4FE883F983C458D04025
:100870008C89282E332427FC30940F920F926C8D94
:100880007D8D4E8D5F8D2B89332727FD3095ED882B
:10089000FF24E7FCF094E3E0F0E0EC0FFD1FADB7C0
:1008A000BEB71196ED93FC931297CC57DF4F88811A
:1008B0009981C458D0408101A9E0CA2ED12CCC0E18
:1008C000DD1EF7E0AF2EB12CAC0EBD1EE5E08E2E86
:1008D000912C8C0E9D1E0E941E060F900F908091F1
:1008E000600990916109805A9F40C8F34D815E81F3
:1008F000C201840F951F8619970980936809909308
:1009000069092B813C81C301840D951D820F931FC2
:1009100080936A0990936B098DB79EB70C978DBF32
:100920009EBFEDB7FEB7319680E290E08C0F9D1F21
:10093000ADB7BEB711968D939C931297A5E2B0E226
:10094000A283B38324823582CC57DF4F888199817B
:10095000C458D04086839783208731874287538746
:100960000E941D09ADB7BEB71C96ADBFBEBF8BE6DA
:1009700090E2BE01605E7F4F0E9425081A8E1B8E9A
:100980001B8A1C8E1D8E1C8A1E8E1F8E1D8A00E0E7
:1009900010E0DDCDDC01FB016D937C931197486382
:1009A0004183ED91FC9111972583ED91FC9181E0BC
:1009B00084830895FC010190F081E02D248130E0D2
:1009C00023703070C9010895FC01838D80E0089583
:1009D0000F93CF93DF93DC01722F2B3008F044C0CC
:1009E0000B3008F041C05B968C915B978823E1F552
:1009F00081E05B968C935B975C961C925C97660F8C
:100A000012966C931297EA0120E030E007C08991BA
:100A1000FD01E20FF31F83832F5F3F4F2717B8F3CA
:100A200057967C93579758960C93589759961C92C3
:100A300059975A961C925A9757968C915797882394
:100A400029F012968C9112978E7F09C058968C913E
:100A50005897882339F012968C9112978160ED9106
:100A6000FC91868381E001C080E0DF91CF910F91FE
:100A700008950F93042F40E050E020E00E94E80426
:100A80000F9108950F9300E00E94E8040F910895DC
:100A9000DC01ED91FC911197948192FF02C084E0FA
:100AA00001C083E05C968C935C97ED91FC9111976B
:100AB000986094835B961C920895CF93DF93DC013A
:100AC00057969C91579758962C915897CD91DC91B9
:100AD00011978C8184FF04C083E08B8385E021C063
:100AE00059968C915997891778F459968C91599702
:100AF000FD01E80FF11D83818F8359968C915997E1
:100B00008F5F59968C9312C05A968C915A97821780
:100B100028F412968C9181608E8308C083E08B83C9
:100B200081E05C968C935C975B961C92DF91CF91F1
:100B30000895DC015A968C915A97ED91FC9111978A
:100B40008A3080F497815A968C915A97FD01E80F6C
:100B5000F11D95875A968C915A978F5F5A968C9370
:100B60005A9709C083E0838382E05C968C935C97FC
:100B70005B961C925B9758969C9158975A968C91CD
:100B80005A97ED91FC911197891718F482E08383AD
:100B9000089587E0838381E05C968C935C975B96F5
:100BA0001C920895DC01ED91FC9111974481242F52
:100BB00030E0C9018C709070892B89F0948192FF8C
:100BC00002C084E001C083E05C968C935C97ED9159
:100BD000FC911197986094835B961C9205C046FF28
:100BE00005C0CD010E945D0580E0089547FF05C066
:100BF000CD010E94990581E0089586E05C968C9372
:100C00005C975B961C9280E00895FC01648F138EC4
:100C100008950F93DF93CF930F92CDB7DEB72FB721
:100C20002983F8941BBEFC0108ED04BF6083898111
:100C30008FBF0F90CF91DF910F9108958F929F9268
:100C4000EF92FF920F931F93DF93CF93CDB7DEB751
:100C50008C01F4012C853D8562E070E00E94E4087F
:100C60006858754F87EF9FEFAC01E49EC001E59E89
:100C7000900DF49E900D1124680F791F608371838D
:100C80006C5A7D4024F08CEA9DE0808391838081C2
:100C90009181875F994024F486EF99E08083918366
:100CA000C80162E070E00E94E408709561957F4F92
:100CB000605B754FC70143E0880F991F4A95E1F7C4
:100CC0008E0D9F1D680F791FF901608371836C5A27
:100CD0007D402CF08CEA9DE0F90180839183F9013D
:100CE00080819181875F99402CF486EF99E0F9012A
:100CF00080839183CF91DF911F910F91FF90EF90AF
:100D00009F908F900895CF92DF92EF92FF920F9372
:100D1000CF93DF936C017B01EA01D7015B968C9145
:100D20008823D9F7C70163E5AE0121E00AE00E94FC
:100D3000E804F701848D8823E1F3858587FFEDCFF3
:100D400042E050E0FA0132974F5F5F4FD701A40FA6
:100D5000B51F415050401D968C911D97F595E79514
:100D60009701240F351F87FF0DC0EE0FFF1FEC0DFD
:100D7000FD1D1D968C91782F60E080819181860FFA
:100D8000971F0CC0EE0FFF1FEC0DFD1D1D968C91E3
:100D9000D82FC0E0808191818C0F9D1F808391832B
:100DA000D9011D962C91820F911D808391834E5FF6
:100DB0005F4F4830510531F6DF91CF910F91FF9091
:100DC000EF90DF90CF900895CF92DF92EF92FF9255
:100DD0000F93CF93DF936C01EB017A018B8D882306
:100DE000E9F7CE0168E6A70121E00AE00E94E804E5
:100DF0008C8D8823E9F38D8580FFF0CF20E030E0F3
:100E0000D901B595A795AC0DBD1D2D5F3F4FFE01D6
:100E1000E20FF31F95858C91890F8C932150304000
:100E20002630310569F7DF91CF910F91FF90EF9058
:100E3000DF90CF9008951F93FC018381682F77275F
:100E400067FD709510E040E050E013C0220F331FA3
:100E5000019748175907D4F3C90186239723892B93
:100E600019F0220F331F122B4F5F5F4F4730510590
:100E700029F085E090E021E030E0EBCF828187FD32
:100E8000116000D00F92EDB7FEB7319688E490E282
:100E9000ADB7BEB711968D939C93129712831382B0
:100EA0000E940B090F900F900F900F90812F1F91B0
:100EB00008951F93CF93DF93EC01162F0E941B0719
:100EC000811B682F70E081E090E0062E02C0880F41
:100ED000991F0A94E2F7182F40E050E0A1E0B0E03B
:100EE000FB0131971AC0220F331F0197481759078A
:100EF000D4F38A81992787FD909528233923232BC2
:100F000051F0CF01841B950B9D0102C0220F331FAE
:100F10008A95E2F7122B4F5F5F4F4617570729F06C
:100F200021E030E086E090E0E1CF00D00F92EDB715
:100F3000FEB7319688E490E2ADB7BEB711968D93B7
:100F40009C931297128313820E940B090F900F90AB
:100F50000F900F90812FDF91CF911F9108951F93D4
:100F6000CF93DF93EC01162F0E941B07811B682F84
:100F700070E081E090E0062E02C0880F991F0A946D
:100F8000E2F7182F40E050E0A1E0B0E0FB0131971C
:100F90001AC0220F331F019748175907D4F38A81CB
:100FA000992787FD909528233923232B51F0CF01D2
:100FB000841B950B9D0102C0220F331F8A95E2F717
:100FC000122B4F5F5F4F4617570729F021E030E0A3
:100FD00086E090E0E1CF8B8187FD119500D00F92E4
:100FE00088E490E2EDB7FEB781839283812F992741
:100FF00087FD9095838394830E940B090F900F9037
:101000000F900F90812FDF91CF911F910895EF9254
:10101000FF920F931F93CF93DF93EC01F62E00EA1C
:1010200016E0EE24E3948091A4068E25F8018483D3
:10103000CE016F2D0E944F088823A9F3DF91CF9135
:101040001F910F91FF90EF9008950F931F93CF93EF
:10105000DF938C01EB0103C0C8010E94070869916E
:101060006623D1F7DF91CF911F910F910895FC0175
:101070006083718342835383118E108E138E128E80
:101080000895FC01628373830895FC01828D938D22
:1010900020E08F5F8370891321E0822F0895DC01A7
:1010A0005A968C915A975B969C915B9720E08F5F44
:1010B00083708917B1F021E05A968C915A97FD01FF
:1010C000E80FF11D648B8F5F83705A968C935A974B
:1010D000ED91FC91119783818C7F12969C91892BC5
:1010E0008383822F0895FC01908D818D20E09813D9
:1010F00021E0822F0895DC0159968C915997FD01CA
:10110000E80FF11D848159969C9159979F5F9F70BC
:1011100059969C930895DC0158969C9158979F5F2F
:101120009F7059968C915997ED91FC911197208160
:10113000981711F480E0089558968C915897FD0106
:10114000E80FF11D248358969C9381E00895CF9376
:10115000DF93DC015B969C915B975A968C915A9732
:10116000CD91DC911197891721F48B818C7F8B8332
:101170000FC05B968C915B97FD01E80FF11D848990
:1011800088835B968C915B978F5F83705B968C9363
:10119000DF91CF910895FC0170FF03C084818160CD
:1011A00002C084818E7F848360830895FC018481E2
:1011B00080FF05C08081282F30E0316003C080812E
:1011C000282F30E0C901089597FB092E07260AD081
:1011D00077FD04D00CD006D000201AF470956195EC
:1011E0007F4F0895F6F7909581959F4F0895AA1B1C
:1011F000BB1B51E107C0AA1FBB1FA617B70710F002
:10120000A61BB70B881F991F5A95A9F78095909533
:10121000BC01CD010895DF93CF93CDB7DEB7FE01BA
:101220003696619171918091892090918A20AF01C9
:101230000E944809CF91DF9108950F931F93DF9388
:10124000CF93CDB7DEB72E97CDBFDEBF0E891F89F6
:1012500086E08C8309831A838FEF9FE78D839E83BB
:101260009E01265E3F4FCE010196688D798DA901C2
:101270000E9448092F813885020F131FF801108240
:101280002E96CDBFDEBFCF91DF911F910F910895B4
:101290002F923F924F925F926F927F928F929F9286
:1012A000AF92BF92CF92DF92EF92FF920F931F9374
:1012B000DF93CF93CDB7DEB72B97CDBFDEBF3C0119
:1012C0002B015A01FC0116821782838181FD03C024
:1012D0006FEF7FEFC6C19AE0892E1E010894211C92
:1012E000311CF3012381F20123FD859123FF8191BC
:1012F0002F01882309F4B2C1853239F423FD859189
:1013000023FF81912F01853229F490E0B3010E94DF
:101310005E0BE7CF982FFF24EE249924FFE1FF1501
:10132000D0F09B3269F09C3228F4903259F093321D
:1013300091F40EC09D3249F0903369F441E024C02D
:1013400052E0F52A84E0F82A28C098E0F92A25C05E
:10135000E0E1FE2A22C0F7FC29C0892F80538A30A1
:1013600070F4F6FE05C0989C902C1124980E15C0C0
:10137000E89CE02C1124E80EF0E2FF2A0EC09E3219
:1013800029F4F6FC6BC140E4F42A07C09C3619F43A
:1013900050E8F52A02C0983649F4F20123FD9591F0
:1013A00023FF91912F01992309F0B8CF892F8554FC
:1013B000833018F08052833038F444E050E0A40EBB
:1013C000B51E5FE359830FC0933631F0933779F040
:1013D000933509F056C020C0F5018081898342E031
:1013E00050E0A40EB51E610101E010E012C0F5014D
:1013F000C080D180F6FC03C06FEF7FEF02C0692D83
:1014000070E042E050E0A40EB51EC6010E94530BEE
:101410008C015FE7F52214C0F501C080D180F6FC95
:1014200003C06FEF7FEF02C0692D70E042E050E033
:10143000A40EB51EC6010E94480B8C0150E8F52A87
:10144000F3FE07C01AC080E290E0B3010E945E0B79
:10145000EA948E2D90E008171907A8F30EC0F60144
:10146000F7FC8591F7FE81916F0190E0B3010E9436
:101470005E0BE110EA94015010400115110579F757
:10148000EAC0943611F0993669F5F7FE08C0F50107
:10149000208131814281538184E090E00AC0F501CE
:1014A000808191819C01442737FD4095542F82E033
:1014B00090E0A80EB91E9FE6F92257FF09C050958B
:1014C0004095309521953F4F4F4F5F4FE0E8FE2A02
:1014D000CA01B901A1012AE030E00E948A0BD82E8E
:1014E000D21840C0953729F41F2D1F7E2AE030E026
:1014F0001DC01F2D197F9F3661F0903720F498355D
:1015000009F0ACC00FC0903739F0983709F0A6C089
:1015100004C028E030E00AC0106114FD146020E12E
:1015200030E004C014FD166020E132E017FF08C06F
:10153000F501608171818281938144E050E008C0AF
:10154000F50180819181BC0180E090E042E050E0B3
:10155000A40EB51EA1010E948A0BD82ED2188FE7C7
:10156000F82EF122F6FE0BC05EEFF522D91438F406
:10157000F4FE07C0F2FC05C08FEEF82202C01D2D5C
:1015800001C0192DF4FE0DC0FE01ED0DF11D80818D
:10159000803319F499EEF92208C01F5FF2FE05C0EE
:1015A00003C08F2D867809F01F5F0F2DF3FC14C048
:1015B000F0FE0FC01E1510F09D2C0BC09D2C9E0C34
:1015C000911A1E2D06C080E290E0B3010E945E0BCE
:1015D0001F5F1E15C0F304C01E1510F4E11A01C0F0
:1015E000EE2404FF0FC080E390E0B3010E945E0B85
:1015F00002FF1DC001FD03C088E790E00EC088E532
:1016000090E00BC0802F867891F001FF02C08BE242
:1016100001C080E2F7FC8DE290E0B3010E945E0B16
:1016200006C080E390E0B3010E945E0B9A94D91447
:10163000C0F3DA94F101ED0DF11D808190E0B3016A
:101640000E945E0BDD20A9F706C080E290E0B301A6
:101650000E945E0BEA94EE20C1F743CEF30166814F
:101660007781CB012B96CDBFDEBFCF91DF911F914C
:101670000F91FF90EF90DF90CF90BF90AF909F9031
:101680008F907F906F905F904F903F902F90089534
:10169000FC010590615070400110D8F7809590953D
:1016A0008E0F9F1F0895FC01615070400190011042
:1016B000D8F7809590958E0F9F1F08950F931F93D5
:1016C000CF93DF938C01EB018B8181FF1BC082FFE5
:1016D0000DC02E813F818C819D812817390764F4CC
:1016E000E881F9810193E883F98306C0E885F985EB
:1016F000802F1995892B31F48E819F8101968E83DD
:101700009F8302C00FEF1FEFC801DF91CF911F91A0
:101710000F910895FA01AA27283051F1203181F163
:10172000E8946F936E7F6E5F7F4F8F4F9F4FAF4FE9
:10173000B1E03ED0B4E03CD0670F781F891F9A1FFC
:10174000A11D680F791F8A1F911DA11D6A0F711DB0
:10175000811D911DA11D20D009F468943F912AE0BC
:10176000269F11243019305D3193DEF6CF010895A4
:10177000462F4770405D4193B3E00FD0C9F7F6CFD5
:10178000462F4F70405D4A3318F0495D31FD40529D
:10179000419302D0A9F7EACFB4E0A6959795879533
:1017A00077956795BA95C9F7009761057105089512
:1017B0009B01AC010A2E06945795479537952795BE
:1017C000BA95C9F7620F731F841F951FA01D089556
:0417D000F894FFCFBB
:1017D40072697365202534642074696C742025341F
:1017E4006420726F742025346420666F722025345F
:1017F40064200A0D002058253464207825346420A0
:1018040052253464204C2534640A0D000000000085
:0C18140000000000002C0C0825690A00F0
:00000001FF
