:100000000C94F4000C9415010C9415010C9415013A
:100010000C9415010C9415010C9415010C94150108
:100020000C9415010C9415010C9415010C941501F8
:100030000C9415010C9417010C9415010C941501E6
:100040000C9415010C9415010C9415010C941501D8
:100050000C9415010C9415010C9415010C941501C8
:100060000C9415010C9415010C9415010C941501B8
:100070000C9415010C9415010C9415010C941501A8
:100080000C9415010C9415010C9415010C94150198
:100090000C9415010C9415010C9415010C94150188
:1000A0000C9415010C9415010C9415010C94150178
:1000B0000C9415010C9415010C9415010C94150168
:1000C0000C9415010C9415010C9415010C94150158
:1000D0000C9415010C9415010C9415010C94150148
:1000E0000C9415010C9415010C9472010C944801A8
:1000F0000C9415010C9415010C9415010C94150128
:100100000C9415010C9415010C9415010C94150117
:100110000C9415010C9415010C9415010C94150107
:100120000C9415010C9415010C9415010C941501F7
:100130000C9415010C9415010C9415010C941501E7
:100140000C9415010C9415010C9415010C941501D7
:100150000C9415010C9415010C9415010C941501C7
:100160000C9415010C9415010C9415010C941501B7
:100170000C9415010C9415010C9415010C941501A7
:100180000C9415010C9415010C9415010C94150197
:100190000C9415010C9415010C9415010C94150187
:1001A0000C9415010C9415010C9415010C94150177
:1001B0000C9415010C9415010C9415010C94150167
:1001C0000C9415010C9415010C9415010C94150157
:1001D0000C9415010C9415010C9415010C94150147
:1001E0000C9415010C94150111241FBECFEFDFE311
:1001F000DEBFCDBF00E00CBF10E2A0E0B0E2E6E75A
:10020000F3E100E00BBF02C007900D92A234B107EA
:10021000D9F710E2A2E4B0E201C01D92A137B10704
:10022000E1F70E949C010C94B9090C9400001F9204
:100230000F920FB60F920BB60F9211242F933F938C
:100240004F935F936F937F938F939F93AF93BF93DE
:10025000EF93FF9384E490E20E948C058091352017
:10026000882319F481E080934220FF91EF91BF91A0
:10027000AF919F918F917F916F915F914F913F913E
:100280002F910F900BBE0F900FBE0F901F901895DF
:100290001F920F920FB60F920BB60F9211242F934D
:1002A0003F934F935F936F937F938F939F93AF93FE
:1002B000BF93EF93FF9381E690E20E948A06FF913D
:1002C000EF91BF91AF919F918F917F916F915F91CE
:1002D0004F913F912F910F900BBE0F900FBE0F903B
:1002E0001F9018951F920F920FB60F920BB60F9298
:1002F00011242F933F934F935F936F937F938F932B
:100300009F93AF93BF93EF93FF9381E690E20E9498
:100310006E06FF91EF91BF91AF919F918F917F9169
:100320006F915F914F913F912F910F900BBE0F9066
:100330000FBE0F901F9018952F923F924F925F9291
:100340006F927F928F929F92AF92BF92CF92DF92E5
:10035000EF92FF920F931F93DF93CF93CDB7DEB74A
:10036000CE58D040CDBFDEBFDE011D96EFE3F0E2F8
:1003700083E001900D928150E1F7FE01709683E0D9
:10038000DF011D928A95E9F781E3888B80E38983F9
:1003900085E18E8B84E08F8B89E1888F81E1898F65
:1003A0008EE38B8381E08C838AE18A83DE0153961E
:1003B000ECE3F0E283E001900D928150E1F7DE0181
:1003C0005A96E6E3F0E286E001900D928150E1F763
:1003D0001D821E821F82188619861A861B861C861D
:1003E000A0E4B6E08CE080934006809144068860EB
:1003F00014968C9314978091800688608093800671
:100400008091A00681608093A0068FE080936006B3
:10041000E0E0F9E081E08093000983EF818380E4EC
:100420009CE986A397A383E08093B0008091500657
:10043000877C886150968C938091A2008760E0EA67
:10044000F0E08283789484E490E260E874E040EC29
:1004500050E025E00E94840480915F208823E1F72A
:1004600084E490E263E5AE01435F5F4F23E000E088
:100470000E94A20480915F208823E1F784E490E247
:1004800063E5AE01405F5F4F22E000E00E94A204FE
:1004900080915F208823E1F784E490E268E6AE0172
:1004A0004A5E5F4F24E000E00E94A20480915F203A
:1004B0008823E1F784E490E268E6AE014D5F5F4F88
:1004C00022E000E00E94A20480915F208823E1F7EF
:1004D00081E690E260EA7AE041E050E00E941A068C
:1004E000E0916120F091622083E0858383818063C5
:1004F0008383A0EABAE08CE016968C931697179641
:100500001C928481806184838481886084831092BA
:10051000352010924220CC57DF4F1882C458D0406B
:1005200033C000E010E081E690E20E945606882386
:1005300041F081E690E20E945E06833741F18E36FB
:1005400031F00115110519F10130110561F7E0EDE8
:10055000F7E0E0932809F0932909E0932C09F09340
:100560002D0928EB3BE020932A0930932B09209397
:100570002E0930932F091A8E1B8E1B8A1C8E1D8EFE
:100580001C8A1E8E1F8E1D8A01E010E0CCCF809148
:100590005F208823E1F784E490E268E6AE014E5FD5
:1005A0005F4F21E00AE00E94A2048091422088234C
:1005B000E1F31092422042E050E031E03093A40693
:1005C000DA01AB5BBF4D1D968C911D974250504098
:1005D000BA01759567954E5F5F4FFA01EC5BFF4D71
:1005E00087FF21C01D963C912585FB01EE0FFF1F63
:1005F00081E090E08C0F9D1FE80FF91F818D928D97
:10060000820F911DC457DF4F3883CC58D040C55757
:10061000DF4F1882CB58D040C557DF4FA881B98132
:10062000CB58D04020C01D963C912585FB01EE0F94
:10063000FF1F81E090E08C0F9D1FE80FF91F818D57
:10064000928D820F911DC257DF4F3883CE58D04014
:10065000C357DF4F1882CD58D040C357DF4FA88112
:10066000B981CD58D0408A0F9B1F818F928F4E5FEA
:100670005F4F4830510509F0A0CF80915F2088235B
:10068000E1F784E490E263E5AE014F5F5F4F21E064
:100690000AE00E94A204809142208823E1F3109294
:1006A0004220409154208B89480F4B8B109156204B
:1006B0008C89180F1C8B009158208D89080F0D8B89
:1006C000CC57DF4FB881C458D040BF5FCC57DF4F05
:1006D000B883C458D040B5300CF423CF8A8D9B8D9D
:1006E00065E070E00E94C706FB018C8D9D8D65E082
:1006F00070E00E94C706F62EE72E8E8D9F8D65E076
:1007000070E00E94C7069B01842F47FD8F5F85958F
:100710008D5F8B8B812F17FD8F5F85958C8B802F45
:1007200007FD8F5F859581508D8BEA8FFB8FFC8E47
:10073000ED8E225330402E8F3F8FE83CF1054CF078
:100740001B8A1A8E1B8E1C8A1C8E1D8E1D8A1E8E65
:100750001F8EEA8DFB8DC757DF4FE883F983C95899
:10076000D0402C8D3D8DC957DF4F28833983C75822
:10077000D0408E8D9F8DCB57DF4F88839983C5588E
:10078000D0408B89282E332427FC30948C89482E26
:10079000552447FC50948D89682E772467FC70940B
:1007A0000F920F92E5E0F0E0EC0FFD1FADB7BEB782
:1007B0001196ED93FC931297C757DF4F888199816B
:1007C000C958D040C957DF4F68817981C758D04098
:1007D000CB57DF4F48815981C558D04091018201E4
:1007E0007301ABE0CA2ED12CCC0EDD1EF9E0AF2E8A
:1007F000B12CAC0EBD1EE7E08E2E912C8C0E9D1EF2
:100800000E94C3050F900F908091200990912109BB
:10081000805A9F40C8F31D810E81812F902F8093B5
:1008200028099093290969857A85CB0180932A0943
:1008300090932B094F815885CA0180932C0990937E
:100840002D092B853C85C90180932E0990932F0992
:100850008DB79EB748978DBF9EBFEDB7FEB7319657
:1008600080E290E08C0F9D1FADB7BEB711968D93BF
:100870009C931297A0E0B0E2A283B38324823582D6
:100880004682578260867186C757DF4F888199817B
:10089000C958D04082879387C957DF4FA881B98153
:1008A000C758D040A487B587CB57DF4F888199813F
:1008B000C558D04086879787108B018B628B738BCE
:1008C000448B558B268B378B0E94EE068E01005E83
:1008D0001F4FADB7BEB75896ADBFBEBF0AC081E6C9
:1008E00090E2F80160810E9432068823C1F30F5F15
:1008F0001F4FD8018C91882391F71A8E1B8E1C8E66
:100900001D8E1E8E1F8E0DCEDC01FB016D937C9320
:10091000119748634183ED91FC9111972583ED91E7
:10092000FC9181E084830895FC010190F081E02D29
:10093000248130E023703070C9010895FC01838D5B
:1009400080E008950F93CF93DF93DC01722F2B305B
:1009500008F044C00B3008F041C05B968C915B9767
:100960008823E1F581E05B968C935B975C961C9203
:100970005C97660F12966C931297EA0120E030E0C4
:1009800007C08991FD01E20FF31F83832F5F3F4F63
:100990002717B8F357967C93579758960C93589708
:1009A00059961C9259975A961C925A9757968C9121
:1009B0005797882329F012968C9112978E7F09C041
:1009C00058968C915897882339F012968C911297EB
:1009D0008160ED91FC91868381E001C080E0DF9130
:1009E000CF910F9108950F93042F40E050E020E045
:1009F0000E94A2040F9108950F9300E00E94A204A8
:100A00000F910895DC01ED91FC911197948192FF73
:100A100002C084E001C083E05C968C935C97ED910A
:100A2000FC911197986094835B961C920895CF93E4
:100A3000DF93DC0157969C91579758962C915897C5
:100A4000CD91DC9111978C8184FF04C083E08B836E
:100A500085E021C059968C915997891778F4599659
:100A60008C915997FD01E80FF11D83818F83599671
:100A70008C9159978F5F59968C9312C05A968C918E
:100A80005A97821728F412968C9181608E8308C041
:100A900083E08B8381E05C968C935C975B961C92E1
:100AA000DF91CF910895DC015A968C915A97ED9180
:100AB000FC9111978A3080F497815A968C915A97BD
:100AC000FD01E80FF11D95875A968C915A978F5F1B
:100AD0005A968C935A9709C083E0838382E05C9690
:100AE0008C935C975B961C925B9758969C91589759
:100AF0005A968C915A97ED91FC911197891718F499
:100B000082E08383089587E0838381E05C968C9301
:100B10005C975B961C920895DC01ED91FC91119716
:100B20004481242F30E0C9018C709070892B89F0AA
:100B3000948192FF02C084E001C083E05C968C93B4
:100B40005C97ED91FC911197986094835B961C9251
:100B500005C046FF05C0CD010E94170580E008953D
:100B600047FF05C0CD010E94530581E0089586E04E
:100B70005C968C935C975B961C9280E00895FC01D8
:100B8000648F138E08958F929F92AF92BF92CF92EF
:100B9000DF92EF92FF920F931F93DF93CF93CDB726
:100BA000DEB7D60165015401E6EFFFEF4F01889DE6
:100BB000F001899DF00D989DF00D1124E854F44F3B
:100BC000EE0DFF1DED93FC93FC01B3E0EE0FFF1F54
:100BD000BA95E1F7880F991FE80FF91FE854F44F11
:100BE000EE0DFF1DD601ED93FC93CA01861B970BFA
:100BF0008E54934F820F931F800F911FF5018083B6
:100C000091836E54734F640F751F621B730B601BCF
:100C1000710BE889F98960837183CF91DF911F910E
:100C20000F91FF90EF90DF90CF90BF90AF909F908B
:100C30008F900895FC0160837183428353831586EE
:100C40001486178616860895FC01628373830895BF
:100C5000FC018685978520E08F5F8370891321E0F2
:100C6000822F0895DC011E968C911E971F969C91F1
:100C70001F9720E08F5F83708917B1F021E01E96E7
:100C80008C911E97FD01E80FF11D60878F5F8370C7
:100C90001E968C931E97ED91FC91119783818C7F0A
:100CA00012969C91892B8383822F0895FC01948551
:100CB000858520E0981321E0822F0895DC011D96A0
:100CC0008C911D97FD01E80FF11D84811D969C916B
:100CD0001D979F5F93701D969C930895DC011C9651
:100CE0009C911C979F5F93701D968C911D97ED9121
:100CF000FC9111972081981711F480E008951C96BB
:100D00008C911C97FD01E80FF11D24831C969C9388
:100D100081E00895CF93DF93DC011F969C911F978C
:100D20001E968C911E97CD91DC911197891721F415
:100D30008B818C7F8B830FC01F968C911F97FD0139
:100D4000E80FF11D808588831F968C911F978F5F18
:100D500083701F968C93DF91CF910895FC0170FFF3
:100D600003C08481816002C084818E7F848360831C
:100D70000895FC01848180FF05C08081282F30E028
:100D8000316003C08081282F30E0C901089597FBAE
:100D9000092E07260AD077FD04D00CD006D00020FB
:100DA0001AF4709561957F4F0895F6F790958195A7
:100DB0009F4F0895AA1BBB1B51E107C0AA1FBB1F71
:100DC000A617B70710F0A61BB70B881F991F5A95D7
:100DD000A9F780959095BC01CD0108950F931F93BD
:100DE000DF93CF93CDB7DEB72E97CDBFDEBF0E8991
:100DF0001F8986E08C8309831A838FEF9FE78D8399
:100E00009E839E01265E3F4FCE010196688D798DAF
:100E1000A9010E9419072F813885020F131FF801BD
:100E200010822E96CDBFDEBFCF91DF911F910F9123
:100E300008952F923F924F925F926F927F928F927E
:100E40009F92AF92BF92CF92DF92EF92FF920F9359
:100E50001F93DF93CF93CDB7DEB72B97CDBFDEBF08
:100E60003C012B015A01FC0116821782838181FD0E
:100E700003C06FEF7FEFC6C19AE0892E1E01089470
:100E8000211C311CF3012381F20123FD859123FFF5
:100E900081912F01882309F4B2C1853239F423FDF1
:100EA000859123FF81912F01853229F490E0B301D0
:100EB0000E942F09E7CF982FFF24EE249924FFE109
:100EC000FF15D0F09B3269F09C3228F4903259F033
:100ED000933291F40EC09D3249F0903369F441E0B1
:100EE00024C052E0F52A84E0F82A28C098E0F92AC4
:100EF00025C0E0E1FE2A22C0F7FC29C0892F8053DB
:100F00008A3070F4F6FE05C0989C902C1124980E3F
:100F100015C0E89CE02C1124E80EF0E2FF2A0EC078
:100F20009E3229F4F6FC6BC140E4F42A07C09C36DB
:100F300019F450E8F52A02C0983649F4F20123FD6D
:100F4000959123FF91912F01992309F0B8CF892F13
:100F50008554833018F08052833038F444E050E0F8
:100F6000A40EB51E5FE359830FC0933631F093375B
:100F700079F0933509F056C020C0F501808189834E
:100F800042E050E0A40EB51E610101E010E012C085
:100F9000F501C080D180F6FC03C06FEF7FEF02C087
:100FA000692D70E042E050E0A40EB51EC6010E941B
:100FB00024098C015FE7F52214C0F501C080D180BF
:100FC000F6FC03C06FEF7FEF02C0692D70E042E0D6
:100FD00050E0A40EB51EC6010E9419098C0150E80C
:100FE000F52AF3FE07C01AC080E290E0B3010E9428
:100FF0002F09EA948E2D90E008171907A8F30EC068
:10100000F601F7FC8591F7FE81916F0190E0B30145
:101010000E942F09E110EA940150104001151105BA
:1010200079F7EAC0943611F0993669F5F7FE08C0F1
:10103000F501208131814281538184E090E00AC032
:10104000F501808191819C01442737FD4095542F03
:1010500082E090E0A80EB91E9FE6F92257FF09C072
:1010600050954095309521953F4F4F4F5F4FE0E8A9
:10107000FE2ACA01B901A1012AE030E00E945B0901
:10108000D82ED21840C0953729F41F2D1F7E2AE094
:1010900030E01DC01F2D197F9F3661F0903720F47E
:1010A000983509F0ACC00FC0903739F0983709F087
:1010B000A6C004C028E030E00AC0106114FD14602E
:1010C00020E130E004C014FD166020E132E017FF9B
:1010D00008C0F501608171818281938144E050E014
:1010E00008C0F50180819181BC0180E090E042E080
:1010F00050E0A40EB51EA1010E945B09D82ED218A3
:101100008FE7F82EF122F6FE0BC05EEFF522D91420
:1011100038F4F4FE07C0F2FC05C08FEEF82202C0DE
:101120001D2D01C0192DF4FE0DC0FE01ED0DF11DA8
:101130008081803319F499EEF92208C01F5FF2FE16
:1011400005C003C08F2D867809F01F5F0F2DF3FCBB
:1011500014C0F0FE0FC01E1510F09D2C0BC09D2C6E
:101160009E0C911A1E2D06C080E290E0B3010E94F1
:101170002F091F5F1E15C0F304C01E1510F4E11ADD
:1011800001C0EE2404FF0FC080E390E0B3010E9491
:101190002F0902FF1DC001FD03C088E790E00EC0CB
:1011A00088E590E00BC0802F867891F001FF02C0A7
:1011B0008BE201C080E2F7FC8DE290E0B3010E9477
:1011C0002F0906C080E390E0B3010E942F099A9492
:1011D000D914C0F3DA94F101ED0DF11D808190E096
:1011E000B3010E942F09DD20A9F706C080E290E03C
:1011F000B3010E942F09EA94EE20C1F743CEF30118
:1012000066817781CB012B96CDBFDEBFCF91DF9179
:101210001F910F91FF90EF90DF90CF90BF90AF9014
:101220009F908F907F906F905F904F903F902F9006
:101230000895FC010590615070400110D8F7809529
:1012400090958E0F9F1F0895FC0161507040019092
:101250000110D8F7809590958E0F9F1F08950F93DA
:101260001F93CF93DF938C01EB018B8181FF1BC018
:1012700082FF0DC02E813F818C819D812817390707
:1012800064F4E881F9810193E883F98306C0E88575
:10129000F985802F1995892B31F48E819F810196D4
:1012A0008E839F8302C00FEF1FEFC801DF91CF91A4
:1012B0001F910F910895FA01AA27283051F120318A
:1012C00081F1E8946F936E7F6E5F7F4F8F4F9F4FDA
:1012D000AF4FB1E03ED0B4E03CD0670F781F891F1C
:1012E0009A1FA11D680F791F8A1F911DA11D6A0FEA
:1012F000711D811D911DA11D20D009F468943F919D
:101300002AE0269F11243019305D3193DEF6CF019B
:101310000895462F4770405D4193B3E00FD0C9F761
:10132000F6CF462F4F70405D4A3318F0495D31FDCE
:101330004052419302D0A9F7EACFB4E0A695979521
:10134000879577956795BA95C9F7009761057105F7
:1013500008959B01AC010A2E069457954795379541
:101360002795BA95C9F7620F731F841F951FA01D9B
:061370000895F894FFCF80
:1013760020582534642059253464205A25346420A5
:10138600782534642079253464207A253464205203
:101396002534642072253464204C253464206C2561
:1013A60034640A0D00010000000000000000002C5B
:0213B6000C0821
:00000001FF
