:100000000C94F4000C9415010C9415010C9415013A
:100010000C9415010C9415010C9415010C94150108
:100020000C9415010C9415010C9415010C941501F8
:100030000C9415010C9417010C9415010C941501E6
:100040000C9415010C9415010C9415010C941501D8
:100050000C9415010C9415010C9415010C941501C8
:100060000C9415010C9415010C9415010C941501B8
:100070000C9415010C9415010C9415010C941501A8
:100080000C9415010C9415010C9415010C94150198
:100090000C9415010C9415010C9415010C94150188
:1000A0000C9415010C9415010C9415010C94150178
:1000B0000C9415010C9415010C9415010C94150168
:1000C0000C9415010C9415010C9415010C94150158
:1000D0000C9415010C9415010C9415010C94150148
:1000E0000C9415010C9415010C946B010C944101B6
:1000F0000C9415010C9415010C9415010C94150128
:100100000C9415010C9415010C9415010C94150117
:100110000C9415010C9415010C9415010C94150107
:100120000C9415010C9415010C9415010C941501F7
:100130000C9415010C9415010C9415010C941501E7
:100140000C9415010C9415010C9415010C941501D7
:100150000C9415010C9415010C9415010C941501C7
:100160000C9415010C9415010C9415010C941501B7
:100170000C9415010C9415010C9415010C941501A7
:100180000C9415010C9415010C9415010C94150197
:100190000C9415010C9415010C9415010C94150187
:1001A0000C9415010C9415010C9415010C94150177
:1001B0000C9415010C9415010C9415010C94150167
:1001C0000C9415010C9415010C9415010C94150157
:1001D0000C9415010C9415010C9415010C94150147
:1001E0000C9415010C94150111241FBECFEFDFE311
:1001F000DEBFCDBF00E00CBF10E2A0E0B0E2E6EC55
:10020000FCE100E00BBF02C007900D92A636B107DB
:10021000D9F710E2A6E6B0E201C01D92A73AB107F5
:10022000E1F70E94A7010C94610E0C9400001F924C
:100230000F920FB60F920BB60F9211242F933F938C
:100240004F935F936F937F938F939F93AF93BF93DE
:10025000EF93FF9387E690E20E941D07FF91EF91D5
:10026000BF91AF919F918F917F916F915F914F91CE
:100270003F912F910F900BBE0F900FBE0F901F90CC
:1002800018951F920F920FB60F920BB60F92112472
:100290002F933F934F935F936F937F938F939F938E
:1002A000AF93BF93EF93FF9385E890E20E94200BFA
:1002B000FF91EF91BF91AF919F918F917F916F913E
:1002C0005F914F913F912F910F900BBE0F900FBEFA
:1002D0000F901F9018951F920F920FB60F920BB6AA
:1002E0000F9211242F933F934F935F936F937F93BC
:1002F0008F939F93AF93BF93EF93FF9385E890E223
:100300000E94040B85E890E20E94F40A8093842006
:1003100080918420813729F489E790E061E00E9490
:10032000540781E080936620FF91EF91BF91AF91D8
:100330009F918F917F916F915F914F913F912F91FD
:100340000F900BBE0F900FBE0F901F9018952F921D
:100350003F924F925F926F927F928F929F92AF9255
:10036000BF92CF92DF92EF92FF920F931F93DF9392
:10037000CF93CDB7DEB7C95BD040CDBFDEBF1B8208
:100380001C821D821E821F82188619861A86DE0133
:100390001D96E2E5F0E283E001900D928150E1F7D5
:1003A000FE01709683E0DF011D928A95E9F781E3F3
:1003B000888B80E3898385E18C8F84E18D8F8BE14D
:1003C0008E8F81E18F8F8EE38B8781E08C878AE12E
:1003D0008A83DE015396EFE4F0E283E001900D9210
:1003E0008150E1F7DE019096E9E4F0E286E00190C9
:1003F0000D928150E1F7DE019696E3E4F0E286E0AB
:1004000001900D928150E1F7DE019C96EDE3F0E260
:1004100086E001900D928150E1F7DE015696EAE305
:10042000F0E283E001900D928150E1F7DE015996F0
:10043000E7E3F0E283E001900D928150E1F7E0E420
:10044000F9E081E08093400993E3918320E43CE963
:1004500026A337A3E0E4F8E080934008918326A325
:1004600037A3E0E0F8E08093000883E0818326A3CF
:1004700037A38091A2008760E0EAF0E0828378945D
:1004800080E3809360068CE38093400688E0E0E49C
:10049000F6E0848387E690E260E874E040EC50E0A8
:1004A00025E00E941506809182208823E1F787E6E7
:1004B00090E263E5AE01435F5F4F23E000E00E94FE
:1004C0003306809182208823E1F787E690E263E596
:1004D000AE01405F5F4F22E000E00E943306809152
:1004E00082208823E1F787E690E268E6AE01445E69
:1004F0005F4F24E000E00E94330680918220882331
:10050000E1F787E690E268E6AE01455F5F4F22E0E3
:1005100000E00E943306809182208823E1F78091D9
:1005200082048C60E0E8F4E0828380918006886039
:10053000809380068091A00683608093A00681E06E
:10054000E0EAF6E0848385E890E260EA7AE041E060
:1005500050E00E94B00AE0918520F091862083E06F
:100560008583E0918520F091862083818063838359
:10057000E0EAFAE08CE086831782E0918520F09132
:100580008620848180618483E0918520F09186209B
:10059000848188608483809160068860809360068F
:1005A000B98DC954DF4FB883C75BD040EB2FFF270D
:1005B000E7FDF095CB54DF4FE883F983C55BD0406E
:1005C000FA8DCC54DF4FF883C45BD0402F2F3327F4
:1005D00027FD3095CE54DF4F28833983C25BD0404E
:1005E0002B8C822D992787FD9095C055DF4F8883EE
:1005F0009983C05BD0408E89A82FBB27A7FDB095FB
:10060000C255DF4FA883B983CE5AD0408F89E82FD7
:10061000FF27E7FDF095C455DF4FE883F983CC5AF7
:10062000D040888D282F332727FD3095C655DF4FC2
:1006300028833983CA5AD04001E010E0C855DF4F03
:1006400018821982C85AD040CA55DF4F18821982C1
:10065000C65AD040CC55DF4F18821982C45AD040B8
:10066000CE55DF4F18821982C25AD040CE01C296B1
:10067000C854DF4F88839983C85BD0401B8A1EA271
:100680001FA21AAA1BAA18AE19AE1C8A18A619A670
:100690001CAA1DAA1AAE1BAE1D8A1AA61BA61EAA4C
:1006A0001FAA1CAE1DAE80916620882309F402C1EA
:1006B000109266208091A40692E089278093A40678
:1006C0006091842085E890E20E94800A80918420D5
:1006D000823709F4F7C080918420833709F059C02C
:1006E0008091A406A2E08A278093A406EDB7FEB706
:1006F0007097EDBFFEBF31962EE330E02C0F3D1F0B
:10070000ADB7BEB711962D933C93129780E090E25F
:1007100082839383CB54DF4FA881B981C55BD040DE
:10072000A483B583CE54DF4F28813981C25BD0408A
:1007300026833783C055DF4F88819981C05BD040C5
:1007400080879187C255DF4FA881B981CE5AD040AA
:10075000A287B387C455DF4F28813981CC5AD04056
:1007600024873587C655DF4F88819981CA5AD04082
:10077000868797870E94960BADB7BEB75096ADBFE0
:10078000BEBF85E890E2BE01625C7F4F0E949E0A78
:100790009EC080918420853771F4C855DF4FE88171
:1007A000F981C85AD0407996C855DF4FE883F9835C
:1007B000C85AD0407FC080918420843679F4C855CF
:1007C000DF4F28813981C85AD04029513040C8555F
:1007D000DF4F28833983C85AD0406CC08091842071
:1007E000833671F4CA55DF4F88819981C65AD0404B
:1007F0000A96CA55DF4F88839983C65AD0405AC09B
:1008000080918420883771F4CA55DF4FA881B9815F
:10081000C65AD0401A97CA55DF4FA883B983C65A23
:10082000D04048C080918420813671F4CE55DF4F8E
:10083000E881F981C25AD0403A96CE55DF4FE8831D
:10084000F983C25AD04036C080918420853679F42D
:10085000CE55DF4F28813981C25AD0402A503040CE
:10086000CE55DF4F28833983C25AD04023C08091B0
:100870008420843771F4CC55DF4F88819981C45A24
:10088000D0400A96CC55DF4F88839983C45AD04014
:1008900011C080918420823669F4CC55DF4FA88145
:1008A000B981C45AD0401A97CC55DF4FA883B98379
:1008B000C45AD0400115110529F00130110509F085
:1008C000DDCE05C080910C0880FF66C019C080EDA8
:1008D00097E080936809909369092CEA3DE02093A2
:1008E00068083093690880936A0990936B0982E6DF
:1008F0009CE080936A0890936B0801E010E0BECE04
:1009000081E0E0E0F8E08487CE01439667E670E29C
:10091000AE014E5F5F4F0E945D09CE01869667E68D
:1009200070E2AE014F5F5F4F0E94FC082B893327B6
:1009300027FD30958AA99BA9820F931F8AAB9BAB99
:1009400088AD99AD2EA13FA1820F931F88AF99AFBB
:100950002C89332727FD30958CA99DA9820F931FE1
:100960008CAB9DAB8AAD9BAD28A539A5820F931F9B
:100970008AAF9BAF2D89332727FD30958EA99FA97C
:10098000820F931F8EAB9FAB8CAD9DAD2AA53BA56F
:10099000820F931F8CAF9DAF4AA83CA86AAC7BAC7A
:1009A0005EA88CAC9DACA8ACB9ACC255DF4FE88159
:1009B000F981CE5AD040AE1ABF0AAEA2BFA2C95426
:1009C000DF4FF881C75BD0404F1A4B8AC455DF4FC9
:1009D00028813981CC5AD040621A730A68A679A658
:1009E000CC54DF4F3881C45BD040331A3C8AC655A3
:1009F000DF4F88819981CA5AD040881A990A8AA6FD
:100A00009BA652185D8AFE01BC96B6E2EB2EF12C35
:100A1000EC0EFD1EA0E2CA2ED12CCC0EDD1E8E01E6
:100A20000D5E1F4FD7012D913D917D01C901880FAA
:100A3000991F880F991F820F931F408151819A013E
:100A400064E0220F331F6A95E1F7241B350B820FF8
:100A5000931F64E170E00E945D0B61937193D80174
:100A60008D918D01BFE08B02C0011124D6014D9103
:100A70005C919A01220F331F220F331F240F351F61
:100A8000820F931F64E170E00E945D0BD6016D93AD
:100A90007D936D01C854DF4F28813981C85BD040F8
:100AA000E217F30709F0BECF0F920F92242D3327E0
:100AB00027FD3095032D112707FD1095E52CFF2408
:100AC000E7FCF094E3E0F0E0EC0FFD1FADB7BEB73C
:100AD0001196ED93FC931297C501B301A401A9E00F
:100AE000CA2ED12CCC0EDD1EF7E0AF2EB12CAC0EF1
:100AF000BD1EE5E08E2E912C8C0E9D1E0E94690776
:100B00000F900F908091600990916109805A9F40E9
:100B1000C8F36D817E81C855DF4F88819981C85A9D
:100B2000D040860F971FCE55DF4F28813981C25A9A
:100B3000D040821B930B80936809909369094B8185
:100B40005C81C855DF4F88819981C85AD040820F97
:100B5000931F840F951F80936A0990936B0980916E
:100B6000600890916108805A9F40C8F3CA55DF4FD2
:100B700088819981C65AD040CC55DF4FA881B98170
:100B8000C45AD0408A0F9B1F29853A85820F931F34
:100B900080936808909369088F8198858A0F9B1FBE
:100BA000CA55DF4FE881F981C65AD0408E1B9F0B92
:100BB00080936A0890936B082DB73EB72C50304055
:100BC0002DBF3EBFEDB7FEB731962EE330E02C0FC0
:100BD0003D1FADB7BEB711962D933C93129780E29F
:100BE00090E2828393838AA19BA1848395838CA5C1
:100BF0009DA523E0959587952A95E1F786839783B0
:100C000040875187628773870E94960BADB7BEB746
:100C10001C96ADBFBEBF85E890E2BE01625C7F4F0F
:100C20000E949E0A00E010E029CDDC01FB016D93DB
:100C30007C93119748634183ED91FC911197258333
:100C4000ED91FC9181E084830895FC010190F08195
:100C5000E02D248130E023703070C9010895FC013B
:100C6000838D80E008950F93CF93DF93DC01722F83
:100C70002B3008F044C00B3008F041C05B968C91DB
:100C80005B978823E1F581E05B968C935B975C969C
:100C90001C925C97660F12966C931297EA0120E003
:100CA00030E007C08991FD01E20FF31F83832F5FBE
:100CB0003F4F2717B8F357967C93579758960C9346
:100CC000589759961C9259975A961C925A9757962C
:100CD0008C915797882329F012968C9112978E7FCA
:100CE00009C058968C915897882339F012968C91A8
:100CF00012978160ED91FC91868381E001C080E0D4
:100D0000DF91CF910F9108950F93042F40E050E0B1
:100D100020E00E9433060F9108950F9300E00E9497
:100D200033060F910895DC01ED91FC9111979481A8
:100D300092FF02C084E001C083E05C968C935C97D4
:100D4000ED91FC911197986094835B961C920895A5
:100D5000CF93DF93DC0157969C91579758962C912F
:100D60005897CD91DC9111978C8184FF04C083E06A
:100D70008B8385E021C059968C915997891778F417
:100D800059968C915997FD01E80FF11D83818F834E
:100D900059968C9159978F5F59968C9312C05A9699
:100DA0008C915A97821728F412968C9181608E83C9
:100DB00008C083E08B8381E05C968C935C975B96A4
:100DC0001C92DF91CF910895DC015A968C915A972D
:100DD000ED91FC9111978A3080F497815A968C910D
:100DE0005A97FD01E80FF11D95875A968C915A97F5
:100DF0008F5F5A968C935A9709C083E0838382E071
:100E00005C968C935C975B961C925B9758969C9132
:100E100058975A968C915A97ED91FC911197891792
:100E200018F482E08383089587E0838381E05C96F1
:100E30008C935C975B961C920895DC01ED91FC917C
:100E400011974481242F30E0C9018C709070892B58
:100E500089F0948192FF02C084E001C083E05C9637
:100E60008C935C97ED91FC911197986094835B96BD
:100E70001C9205C046FF05C0CD010E94A80680E077
:100E8000089547FF05C0CD010E94E40681E0089562
:100E900086E05C968C935C975B961C9280E008954C
:100EA000FC01648F138E08950F93DF93CF930F92FD
:100EB000CDB7DEB72FB72983F8941BBEFC0108ED30
:100EC00004BF608389818FBF0F90CF91DF910F9115
:100ED00008958F929F92AF92BF92CF92DF92DF934D
:100EE000CF93CDB7DEB7F601D5018CEA9DE08083C4
:100EF000918382E69CE08D939C9388E79AE0F401CD
:100F000080839183EC85FD8580839183CF91DF91F0
:100F1000DF90CF90BF90AF909F908F9008952F92C9
:100F20003F924F925F926F927F928F929F92AF9279
:100F3000BF92CF92DF92EF92FF920F931F93DF93B6
:100F4000CF93CDB7DEB7AA97CDBFDEBF8D8F9E8F73
:100F50006F8F78A3BA0129A33AA30BA31CA3EDA218
:100F6000FEA2CFA2D8A6A9A6BAA6DE011D96EFE5DD
:100F7000F0E286E001900D928150E1F7DE01539698
:100F8000E9E5F0E286E001900D928150E1F7AD8D48
:100F9000BE8D5C915F83EF8DF8A140814887DB01B6
:100FA0003C913987E9A1FAA120812A87ABA1BCA194
:100FB0009C919B87EDA1FEA180818C8759834A83F8
:100FC0003B832C839D838E8329893A892B8F3C8F89
:100FD0008F859889898F9A8F2D843E844F88588C6D
:100FE0006D887E888B889C88AD8CBE8C6B01EF8C65
:100FF000F8A001E010E0F501A281B3818981992771
:1010000087FD9095A817B90714F4A98308C08F81AC
:10101000992787FD90958A179B070CF4AF83F701FA
:10102000628173818A81992787FD90956817790776
:1010300014F46A8308C08885992787FD90958617E0
:1010400097070CF46887F601228133818B819927F9
:1010500087FD90952817390714F42B8308C08985DC
:10106000992787FD9095821793070CF42987E9A1AA
:10107000FAA1E00FF11F90818C81981714F49C83E2
:1010800004C08A8589170CF49A87EBA1FCA1E00FB4
:10109000F11F40818D81481714F44D8304C08B8566
:1010A00084170CF44B87EDA1FEA1E00FF11FE08146
:1010B0008E81E81714F4EE8304C08C858E170CF42F
:1010C000EC878A0E9B1E660E771E420E531E892FDA
:1010D000992787FD9095280E391E842F992787FD23
:1010E0009095298D3A8D280F391F298F3A8F8E2F91
:1010F000992787FD9095AB8DBC8DA80FB91FAB8F3D
:10110000BC8F0F5F1F4FE2E0F0E0AE0EBF1ECE0EB1
:10111000DF1EEE0EFF1E0233110509F06CCFA98B06
:10112000BA8B2F87388B2D863E864F8A588E6D8AD4
:101130007E8A8B8A9C8A40E050E0DE011196BE01D7
:10114000695F7F4FFD01E40FF51F2081332727FDE5
:1011500030952D5E3F4FFB01E40FF51F80819927ED
:1011600087FD90952817390714F080E02FC04F5F56
:101170005F4F4630510531F783E1E82EF12CEC0E3C
:10118000FD1E8E01035F1F4F20E030E0EFA1F8A5A8
:10119000E20FF31FD7018D919D917D0162E370E015
:1011A0000E945D0B6083E9A5FAA5E20FF31FD80149
:1011B0008D919D918D0162E370E00E945D0B6083D3
:1011C0002F5F3F4F2330310509F781E0AA96CDBF4D
:1011D000DEBFCF91DF911F910F91FF90EF90DF90D5
:1011E000CF90BF90AF909F908F907F906F905F90C7
:1011F0004F903F902F900895CF92DF92EF92FF9201
:101200000F93CF93DF936C017B01EA01D7015B96CB
:101210008C918823D9F7C70163E5AE0121E00AE08C
:101220000E943306F701848D8823E1F3858587FFCB
:10123000EDCF42E050E0FA0132974F5F5F4FD701A8
:10124000A40FB51F415050401D968C911D97F595E8
:10125000E7959701240F351F87FF0DC0EE0FFF1F85
:10126000EC0DFD1D1D968C91782F60E080819181A1
:10127000860F971F0CC0EE0FFF1FEC0DFD1D1D9676
:101280008C91D82FC0E0808191818C0F9D1F80832D
:101290009183D9011D962C91820F911D808391839A
:1012A0004E5F5F4F4830510531F6DF91CF910F917E
:1012B000FF90EF90DF90CF900895CF92DF92EF9262
:1012C000FF920F93CF93DF936C01EB017A018B8D2B
:1012D0008823E9F7CE0168E6A70121E00AE00E9431
:1012E00033068C8D8823E9F38D8580FFF0CF20E0D5
:1012F00030E0D901B595A795AC0DBD1D2D5F3F4FD1
:10130000FE01E20FF31F95858C91890F8C9321507C
:1013100030402630310569F7DF91CF910F91FF9072
:10132000EF90DF90CF9008951F93FC018381682F89
:10133000772767FD709510E040E050E013C0220F62
:10134000331F019748175907D4F3C9018623972300
:10135000892B19F0220F331F122B4F5F5F4F47303D
:10136000510529F021E030E085E090E0EBCF82816B
:1013700087FD116000D00F92EDB7FEB7319685E57D
:1013800090E2ADB7BEB711968D939C9312971283DE
:1013900013820E94840B0F900F900F900F90812F5B
:1013A0001F9108951F93CF93DF93EC01162F0E9496
:1013B0009409811B682F70E081E090E0062E02C046
:1013C000880F991F0A94E2F7182F40E050E0A1E03F
:1013D000B0E0FB0131971AC0220F331F0197481765
:1013E0005907D4F38A81992787FD909528233923BB
:1013F000232B51F0CF01841B950B9D0102C0220FBE
:10140000331F8A95E2F7122B4F5F5F4F461757073E
:1014100029F021E030E086E090E0E1CF00D00F92AB
:10142000EDB7FEB7319685E590E2ADB7BEB7119640
:101430008D939C931297128313820E94840B0F90BA
:101440000F900F900F90812FDF91CF911F910895F2
:101450001F93CF93DF93EC01162F0E949409811BF9
:10146000682F70E081E090E0062E02C0880F991F7F
:101470000A94E2F7182F40E050E0A1E0B0E0FB0151
:1014800031971AC0220F331F019748175907D4F319
:101490008A81992787FD909528233923232B51F0A2
:1014A000CF01841B950B9D0102C0220F331F8A952B
:1014B000E2F7122B4F5F5F4F4617570729F021E0E5
:1014C00030E086E090E0E1CF8B8187FD119500D080
:1014D0000F9285E590E2EDB7FEB781839283812F6D
:1014E000992787FD9095838394830E94840B0F90A6
:1014F0000F900F900F90812FDF91CF911F91089542
:10150000EF92FF920F931F93CF93DF93EC01F62E90
:1015100000EA16E0EE24E3948091A4068E25F801FB
:101520008483CE016F2D0E94C80A8823A9F3DF911E
:10153000CF911F910F91FF90EF9008950F931F93FC
:10154000CF93DF938C01EB0103C0C8010E94800A96
:1015500069916623D1F7DF91CF911F910F91089583
:10156000FC016083718342835383118E108E138E2E
:10157000128E0895FC01628373830895FC01828DAD
:10158000938D20E08F5F8370891321E0822F08956F
:10159000DC015A968C915A975B969C915B9720E060
:1015A0008F5F83708917B1F021E05A968C915A971A
:1015B000FD01E80FF11D648B8F5F83705A968C9349
:1015C0005A97ED91FC91119783818C7F12969C9193
:1015D000892B8383822F0895FC01908D818D20E0DB
:1015E000981321E0822F0895DC0159968C91599728
:1015F000FD01E80FF11D848159969C9159979F5FD9
:101600009F7059969C930895DC0158969C91589729
:101610009F5F9F7059968C915997ED91FC9111970E
:101620002081981711F480E0089558968C9158976E
:10163000FD01E80FF11D248358969C9381E00895E5
:10164000CF93DF93DC015B969C915B975A968C91CC
:101650005A97CD91DC911197891721F48B818C7F5A
:101660008B830FC05B968C915B97FD01E80FF11D9A
:10167000848988835B968C915B978F5F83705B9680
:101680008C93DF91CF910895FC0170FF03C084819A
:10169000816002C084818E7F848360830895FC0111
:1016A000848180FF05C08081282F30E0316003C035
:1016B0008081282F30E0C901089597FB092E072665
:1016C0000AD077FD04D00CD006D000201AF4709513
:1016D00061957F4F0895F6F7909581959F4F0895F6
:1016E000AA1BBB1B51E107C0AA1FBB1FA617B70748
:1016F00010F0A61BB70B881F991F5A95A9F7809564
:101700009095BC01CD010895DF93CF93CDB7DEB79F
:10171000FE013696619171918091A3209091A42051
:10172000AF010E94C10BCF91DF9108950F931F93DA
:10173000DF93CF93CDB7DEB72E97CDBFDEBF0E8937
:101740001F8986E08C8309831A838FEF9FE78D833F
:101750009E839E01265E3F4FCE010196688D798D56
:10176000A9010E94C10B2F813885020F131FF801B8
:1017700010822E96CDBFDEBFCF91DF911F910F91CA
:1017800008952F923F924F925F926F927F928F9225
:101790009F92AF92BF92CF92DF92EF92FF920F9300
:1017A0001F93DF93CF93CDB7DEB72B97CDBFDEBFAF
:1017B0003C012B015A01FC0116821782838181FDB5
:1017C00003C06FEF7FEFC6C19AE0892E1E01089417
:1017D000211C311CF3012381F20123FD859123FF9C
:1017E00081912F01882309F4B2C1853239F423FD98
:1017F000859123FF81912F01853229F490E0B30177
:101800000E94D70DE7CF982FFF24EE249924FFE103
:10181000FF15D0F09B3269F09C3228F4903259F0D9
:10182000933291F40EC09D3249F0903369F441E057
:1018300024C052E0F52A84E0F82A28C098E0F92A6A
:1018400025C0E0E1FE2A22C0F7FC29C0892F805381
:101850008A3070F4F6FE05C0989C902C1124980EE6
:1018600015C0E89CE02C1124E80EF0E2FF2A0EC01F
:101870009E3229F4F6FC6BC140E4F42A07C09C3682
:1018800019F450E8F52A02C0983649F4F20123FD14
:10189000959123FF91912F01992309F0B8CF892FBA
:1018A0008554833018F08052833038F444E050E09F
:1018B000A40EB51E5FE359830FC0933631F0933702
:1018C00079F0933509F056C020C0F50180818983F5
:1018D00042E050E0A40EB51E610101E010E012C02C
:1018E000F501C080D180F6FC03C06FEF7FEF02C02E
:1018F000692D70E042E050E0A40EB51EC6010E94C2
:10190000CC0D8C015FE7F52214C0F501C080D180B9
:10191000F6FC03C06FEF7FEF02C0692D70E042E07C
:1019200050E0A40EB51EC6010E94C10D8C0150E806
:10193000F52AF3FE07C01AC080E290E0B3010E94CE
:10194000D70DEA948E2D90E008171907A8F30EC062
:10195000F601F7FC8591F7FE81916F0190E0B301EC
:101960000E94D70DE110EA940150104001151105B5
:1019700079F7EAC0943611F0993669F5F7FE08C098
:10198000F501208131814281538184E090E00AC0D9
:10199000F501808191819C01442737FD4095542FAA
:1019A00082E090E0A80EB91E9FE6F92257FF09C019
:1019B00050954095309521953F4F4F4F5F4FE0E850
:1019C000FE2ACA01B901A1012AE030E00E94030EFB
:1019D000D82ED21840C0953729F41F2D1F7E2AE03B
:1019E00030E01DC01F2D197F9F3661F0903720F425
:1019F000983509F0ACC00FC0903739F0983709F02E
:101A0000A6C004C028E030E00AC0106114FD1460D4
:101A100020E130E004C014FD166020E132E017FF41
:101A200008C0F501608171818281938144E050E0BA
:101A300008C0F50180819181BC0180E090E042E026
:101A400050E0A40EB51EA1010E94030ED82ED2189C
:101A50008FE7F82EF122F6FE0BC05EEFF522D914C7
:101A600038F4F4FE07C0F2FC05C08FEEF82202C085
:101A70001D2D01C0192DF4FE0DC0FE01ED0DF11D4F
:101A80008081803319F499EEF92208C01F5FF2FEBD
:101A900005C003C08F2D867809F01F5F0F2DF3FC62
:101AA00014C0F0FE0FC01E1510F09D2C0BC09D2C15
:101AB0009E0C911A1E2D06C080E290E0B3010E9498
:101AC000D70D1F5F1E15C0F304C01E1510F4E11AD8
:101AD00001C0EE2404FF0FC080E390E0B3010E9438
:101AE000D70D02FF1DC001FD03C088E790E00EC0C6
:101AF00088E590E00BC0802F867891F001FF02C04E
:101B00008BE201C080E2F7FC8DE290E0B3010E941D
:101B1000D70D06C080E390E0B3010E94D70D9A94E0
:101B2000D914C0F3DA94F101ED0DF11D808190E03C
:101B3000B3010E94D70DDD20A9F706C080E290E036
:101B4000B3010E94D70DEA94EE20C1F743CEF30112
:101B500066817781CB012B96CDBFDEBFCF91DF9120
:101B60001F910F91FF90EF90DF90CF90BF90AF90BB
:101B70009F908F907F906F905F904F903F902F90AD
:101B80000895FC010590615070400110D8F78095D0
:101B900090958E0F9F1F0895FC0161507040019039
:101BA0000110D8F7809590958E0F9F1F08950F9381
:101BB0001F93CF93DF938C01EB018B8181FF1BC0BF
:101BC00082FF0DC02E813F818C819D8128173907AE
:101BD00064F4E881F9810193E883F98306C0E8851C
:101BE000F985802F1995892B31F48E819F8101967B
:101BF0008E839F8302C00FEF1FEFC801DF91CF914B
:101C00001F910F910895FA01AA27283051F1203130
:101C100081F1E8946F936E7F6E5F7F4F8F4F9F4F80
:101C2000AF4FB1E03ED0B4E03CD0670F781F891FC2
:101C30009A1FA11D680F791F8A1F911DA11D6A0F90
:101C4000711D811D911DA11D20D009F468943F9143
:101C50002AE0269F11243019305D3193DEF6CF0142
:101C60000895462F4770405D4193B3E00FD0C9F708
:101C7000F6CF462F4F70405D4A3318F0495D31FD75
:101C80004052419302D0A9F7EACFB4E0A6959795C8
:101C9000879577956795BA95C9F70097610571059E
:101CA00008959B01AC010A2E0694579547953795E8
:101CB0002795BA95C9F7620F731F841F951FA01D42
:061CC0000895F894FFCF27
:101CC600582025642059202564205A202564207830
:101CD6002025642079202564207A2025640A0D00B9
:101CE6002058253464207825346420522534642015
:101CF6004C2534640A0D00000000000000000000BE
:101D060000000000000000000000000000000000CD
:101D160000002C090825690A0000000000000000E8
:061D2600000000000000B7
:00000001FF
